{
  "contractName": "KeyToMetaverse",
  "abi": [
    {
      "inputs": [
        {
          "internalType": "string",
          "name": "name",
          "type": "string"
        },
        {
          "internalType": "string",
          "name": "symbol",
          "type": "string"
        }
      ],
      "stateMutability": "nonpayable",
      "type": "constructor"
    },
    {
      "anonymous": false,
      "inputs": [
        {
          "indexed": true,
          "internalType": "address",
          "name": "owner",
          "type": "address"
        },
        {
          "indexed": true,
          "internalType": "address",
          "name": "approved",
          "type": "address"
        },
        {
          "indexed": true,
          "internalType": "uint256",
          "name": "tokenId",
          "type": "uint256"
        }
      ],
      "name": "Approval",
      "type": "event"
    },
    {
      "anonymous": false,
      "inputs": [
        {
          "indexed": true,
          "internalType": "address",
          "name": "owner",
          "type": "address"
        },
        {
          "indexed": true,
          "internalType": "address",
          "name": "operator",
          "type": "address"
        },
        {
          "indexed": false,
          "internalType": "bool",
          "name": "approved",
          "type": "bool"
        }
      ],
      "name": "ApprovalForAll",
      "type": "event"
    },
    {
      "anonymous": false,
      "inputs": [
        {
          "indexed": true,
          "internalType": "address",
          "name": "previousOwner",
          "type": "address"
        },
        {
          "indexed": true,
          "internalType": "address",
          "name": "newOwner",
          "type": "address"
        }
      ],
      "name": "OwnershipTransferred",
      "type": "event"
    },
    {
      "anonymous": false,
      "inputs": [
        {
          "indexed": false,
          "internalType": "address",
          "name": "account",
          "type": "address"
        }
      ],
      "name": "Paused",
      "type": "event"
    },
    {
      "anonymous": false,
      "inputs": [
        {
          "indexed": true,
          "internalType": "address",
          "name": "from",
          "type": "address"
        },
        {
          "indexed": true,
          "internalType": "address",
          "name": "to",
          "type": "address"
        },
        {
          "indexed": true,
          "internalType": "uint256",
          "name": "tokenId",
          "type": "uint256"
        }
      ],
      "name": "Transfer",
      "type": "event"
    },
    {
      "anonymous": false,
      "inputs": [
        {
          "indexed": false,
          "internalType": "address",
          "name": "account",
          "type": "address"
        }
      ],
      "name": "Unpaused",
      "type": "event"
    },
    {
      "anonymous": false,
      "inputs": [
        {
          "indexed": true,
          "internalType": "uint256",
          "name": "id",
          "type": "uint256"
        }
      ],
      "name": "welcomeToK2M",
      "type": "event"
    },
    {
      "inputs": [],
      "name": "MAX_SUPPLY",
      "outputs": [
        {
          "internalType": "uint256",
          "name": "",
          "type": "uint256"
        }
      ],
      "stateMutability": "view",
      "type": "function"
    },
    {
      "inputs": [
        {
          "internalType": "address",
          "name": "to",
          "type": "address"
        },
        {
          "internalType": "uint256",
          "name": "tokenId",
          "type": "uint256"
        }
      ],
      "name": "approve",
      "outputs": [],
      "stateMutability": "nonpayable",
      "type": "function"
    },
    {
      "inputs": [
        {
          "internalType": "address",
          "name": "owner",
          "type": "address"
        }
      ],
      "name": "balanceOf",
      "outputs": [
        {
          "internalType": "uint256",
          "name": "",
          "type": "uint256"
        }
      ],
      "stateMutability": "view",
      "type": "function"
    },
    {
      "inputs": [],
      "name": "baseTokenURI",
      "outputs": [
        {
          "internalType": "string",
          "name": "",
          "type": "string"
        }
      ],
      "stateMutability": "view",
      "type": "function"
    },
    {
      "inputs": [
        {
          "internalType": "uint256",
          "name": "tokenId",
          "type": "uint256"
        }
      ],
      "name": "burn",
      "outputs": [],
      "stateMutability": "nonpayable",
      "type": "function"
    },
    {
      "inputs": [
        {
          "internalType": "uint256",
          "name": "tokenId",
          "type": "uint256"
        }
      ],
      "name": "getApproved",
      "outputs": [
        {
          "internalType": "address",
          "name": "",
          "type": "address"
        }
      ],
      "stateMutability": "view",
      "type": "function"
    },
    {
      "inputs": [
        {
          "internalType": "address",
          "name": "owner",
          "type": "address"
        },
        {
          "internalType": "address",
          "name": "operator",
          "type": "address"
        }
      ],
      "name": "isApprovedForAll",
      "outputs": [
        {
          "internalType": "bool",
          "name": "",
          "type": "bool"
        }
      ],
      "stateMutability": "view",
      "type": "function"
    },
    {
      "inputs": [],
      "name": "name",
      "outputs": [
        {
          "internalType": "string",
          "name": "",
          "type": "string"
        }
      ],
      "stateMutability": "view",
      "type": "function"
    },
    {
      "inputs": [
        {
          "internalType": "uint256",
          "name": "",
          "type": "uint256"
        }
      ],
      "name": "nftList",
      "outputs": [
        {
          "internalType": "string",
          "name": "",
          "type": "string"
        }
      ],
      "stateMutability": "view",
      "type": "function"
    },
    {
      "inputs": [
        {
          "internalType": "uint256",
          "name": "",
          "type": "uint256"
        }
      ],
      "name": "nftWords",
      "outputs": [
        {
          "internalType": "string",
          "name": "",
          "type": "string"
        }
      ],
      "stateMutability": "view",
      "type": "function"
    },
    {
      "inputs": [],
      "name": "owner",
      "outputs": [
        {
          "internalType": "address",
          "name": "",
          "type": "address"
        }
      ],
      "stateMutability": "view",
      "type": "function"
    },
    {
      "inputs": [
        {
          "internalType": "uint256",
          "name": "tokenId",
          "type": "uint256"
        }
      ],
      "name": "ownerOf",
      "outputs": [
        {
          "internalType": "address",
          "name": "",
          "type": "address"
        }
      ],
      "stateMutability": "view",
      "type": "function"
    },
    {
      "inputs": [],
      "name": "paused",
      "outputs": [
        {
          "internalType": "bool",
          "name": "",
          "type": "bool"
        }
      ],
      "stateMutability": "view",
      "type": "function"
    },
    {
      "inputs": [],
      "name": "renounceOwnership",
      "outputs": [],
      "stateMutability": "nonpayable",
      "type": "function"
    },
    {
      "inputs": [
        {
          "internalType": "address",
          "name": "from",
          "type": "address"
        },
        {
          "internalType": "address",
          "name": "to",
          "type": "address"
        },
        {
          "internalType": "uint256",
          "name": "tokenId",
          "type": "uint256"
        }
      ],
      "name": "safeTransferFrom",
      "outputs": [],
      "stateMutability": "nonpayable",
      "type": "function"
    },
    {
      "inputs": [
        {
          "internalType": "address",
          "name": "from",
          "type": "address"
        },
        {
          "internalType": "address",
          "name": "to",
          "type": "address"
        },
        {
          "internalType": "uint256",
          "name": "tokenId",
          "type": "uint256"
        },
        {
          "internalType": "bytes",
          "name": "_data",
          "type": "bytes"
        }
      ],
      "name": "safeTransferFrom",
      "outputs": [],
      "stateMutability": "nonpayable",
      "type": "function"
    },
    {
      "inputs": [
        {
          "internalType": "address",
          "name": "operator",
          "type": "address"
        },
        {
          "internalType": "bool",
          "name": "approved",
          "type": "bool"
        }
      ],
      "name": "setApprovalForAll",
      "outputs": [],
      "stateMutability": "nonpayable",
      "type": "function"
    },
    {
      "inputs": [],
      "name": "symbol",
      "outputs": [
        {
          "internalType": "string",
          "name": "",
          "type": "string"
        }
      ],
      "stateMutability": "view",
      "type": "function"
    },
    {
      "inputs": [
        {
          "internalType": "uint256",
          "name": "index",
          "type": "uint256"
        }
      ],
      "name": "tokenByIndex",
      "outputs": [
        {
          "internalType": "uint256",
          "name": "",
          "type": "uint256"
        }
      ],
      "stateMutability": "view",
      "type": "function"
    },
    {
      "inputs": [
        {
          "internalType": "address",
          "name": "owner",
          "type": "address"
        },
        {
          "internalType": "uint256",
          "name": "index",
          "type": "uint256"
        }
      ],
      "name": "tokenOfOwnerByIndex",
      "outputs": [
        {
          "internalType": "uint256",
          "name": "",
          "type": "uint256"
        }
      ],
      "stateMutability": "view",
      "type": "function"
    },
    {
      "inputs": [],
      "name": "totalSupply",
      "outputs": [
        {
          "internalType": "uint256",
          "name": "",
          "type": "uint256"
        }
      ],
      "stateMutability": "view",
      "type": "function"
    },
    {
      "inputs": [
        {
          "internalType": "address",
          "name": "from",
          "type": "address"
        },
        {
          "internalType": "address",
          "name": "to",
          "type": "address"
        },
        {
          "internalType": "uint256",
          "name": "tokenId",
          "type": "uint256"
        }
      ],
      "name": "transferFrom",
      "outputs": [],
      "stateMutability": "nonpayable",
      "type": "function"
    },
    {
      "inputs": [
        {
          "internalType": "address",
          "name": "newOwner",
          "type": "address"
        }
      ],
      "name": "transferOwnership",
      "outputs": [],
      "stateMutability": "nonpayable",
      "type": "function"
    },
    {
      "inputs": [],
      "name": "pause",
      "outputs": [],
      "stateMutability": "nonpayable",
      "type": "function"
    },
    {
      "inputs": [],
      "name": "unpause",
      "outputs": [],
      "stateMutability": "nonpayable",
      "type": "function"
    },
    {
      "inputs": [
        {
          "internalType": "string",
          "name": "baseURI",
          "type": "string"
        }
      ],
      "name": "setBaseURI",
      "outputs": [],
      "stateMutability": "nonpayable",
      "type": "function"
    },
    {
      "inputs": [
        {
          "internalType": "address",
          "name": "_to",
          "type": "address"
        },
        {
          "internalType": "string",
          "name": "_tokenURI",
          "type": "string"
        },
        {
          "internalType": "string",
          "name": "_nftWord",
          "type": "string"
        }
      ],
      "name": "safeMint",
      "outputs": [],
      "stateMutability": "nonpayable",
      "type": "function"
    },
    {
      "inputs": [
        {
          "internalType": "uint256",
          "name": "tokenId",
          "type": "uint256"
        }
      ],
      "name": "tokenURI",
      "outputs": [
        {
          "internalType": "string",
          "name": "",
          "type": "string"
        }
      ],
      "stateMutability": "view",
      "type": "function"
    },
    {
      "inputs": [
        {
          "internalType": "bytes4",
          "name": "interfaceId",
          "type": "bytes4"
        }
      ],
      "name": "supportsInterface",
      "outputs": [
        {
          "internalType": "bool",
          "name": "",
          "type": "bool"
        }
      ],
      "stateMutability": "view",
      "type": "function"
    }
  ],
  "bytecode": "0x60806040526001600c553480156200001657600080fd5b5060405162004a6938038062004a6983398181016040528101906200003c9190620003d0565b818181600090805190602001906200005692919062000183565b5080600190805190602001906200006f92919062000183565b5050506000600b60006101000a81548160ff021916908315150217905550620000ad620000a1620000b560201b60201c565b620000bd60201b60201c565b5050620004ba565b600033905090565b6000600b60019054906101000a900473ffffffffffffffffffffffffffffffffffffffff16905081600b60016101000a81548173ffffffffffffffffffffffffffffffffffffffff021916908373ffffffffffffffffffffffffffffffffffffffff1602179055508173ffffffffffffffffffffffffffffffffffffffff168173ffffffffffffffffffffffffffffffffffffffff167f8be0079c531659141344cd1fd0a4f28419497f9722a3daafe3b4186f6b6457e060405160405180910390a35050565b828054620001919062000484565b90600052602060002090601f016020900481019282620001b5576000855562000201565b82601f10620001d057805160ff191683800117855562000201565b8280016001018555821562000201579182015b8281111562000200578251825591602001919060010190620001e3565b5b50905062000210919062000214565b5090565b5b808211156200022f57600081600090555060010162000215565b5090565b6000604051905090565b600080fd5b600080fd5b600080fd5b600080fd5b6000601f19601f8301169050919050565b7f4e487b7100000000000000000000000000000000000000000000000000000000600052604160045260246000fd5b6200029c8262000251565b810181811067ffffffffffffffff82111715620002be57620002bd62000262565b5b80604052505050565b6000620002d362000233565b9050620002e1828262000291565b919050565b600067ffffffffffffffff82111562000304576200030362000262565b5b6200030f8262000251565b9050602081019050919050565b60005b838110156200033c5780820151818401526020810190506200031f565b838111156200034c576000848401525b50505050565b6000620003696200036384620002e6565b620002c7565b9050828152602081018484840111156200038857620003876200024c565b5b620003958482856200031c565b509392505050565b600082601f830112620003b557620003b462000247565b5b8151620003c784826020860162000352565b91505092915050565b60008060408385031215620003ea57620003e96200023d565b5b600083015167ffffffffffffffff8111156200040b576200040a62000242565b5b62000419858286016200039d565b925050602083015167ffffffffffffffff8111156200043d576200043c62000242565b5b6200044b858286016200039d565b9150509250929050565b7f4e487b7100000000000000000000000000000000000000000000000000000000600052602260045260246000fd5b600060028204905060018216806200049d57607f821691505b60208210811415620004b457620004b362000455565b5b50919050565b61459f80620004ca6000396000f3fe608060405234801561001057600080fd5b50600436106101cf5760003560e01c80636352211e11610104578063a22cb465116100a2578063d547cfb711610071578063d547cfb71461051a578063e985e9c514610538578063eca81d4214610568578063f2fde38b14610584576101cf565b8063a22cb46514610482578063b8142b581461049e578063b88d4fde146104ce578063c87b56dd146104ea576101cf565b806375bea166116100de57806375bea1661461040c5780638456cb591461043c5780638da5cb5b1461044657806395d89b4114610464576101cf565b80636352211e146103a257806370a08231146103d2578063715018a614610402576101cf565b806332cb6b0c1161017157806342966c681161014b57806342966c681461031c5780634f6ccce71461033857806355f804b3146103685780635c975abb14610384576101cf565b806332cb6b0c146102d85780633f4ba83a146102f657806342842e0e14610300576101cf565b8063095ea7b3116101ad578063095ea7b31461025257806318160ddd1461026e57806323b872dd1461028c5780632f745c59146102a8576101cf565b806301ffc9a7146101d457806306fdde0314610204578063081812fc14610222575b600080fd5b6101ee60048036038101906101e99190612e4b565b6105a0565b6040516101fb9190612e93565b60405180910390f35b61020c6105b2565b6040516102199190612f47565b60405180910390f35b61023c60048036038101906102379190612f9f565b610644565b604051610249919061300d565b60405180910390f35b61026c60048036038101906102679190613054565b6106c9565b005b6102766107e1565b60405161028391906130a3565b60405180910390f35b6102a660048036038101906102a191906130be565b6107ee565b005b6102c260048036038101906102bd9190613054565b61084e565b6040516102cf91906130a3565b60405180910390f35b6102e06108f3565b6040516102ed91906130a3565b60405180910390f35b6102fe6108f9565b005b61031a600480360381019061031591906130be565b61097f565b005b61033660048036038101906103319190612f9f565b61099f565b005b610352600480360381019061034d9190612f9f565b6109fb565b60405161035f91906130a3565b60405180910390f35b610382600480360381019061037d9190613246565b610a6c565b005b61038c610b02565b6040516103999190612e93565b60405180910390f35b6103bc60048036038101906103b79190612f9f565b610b19565b6040516103c9919061300d565b60405180910390f35b6103ec60048036038101906103e7919061328f565b610bcb565b6040516103f991906130a3565b60405180910390f35b61040a610c83565b005b61042660048036038101906104219190612f9f565b610d0b565b6040516104339190612f47565b60405180910390f35b610444610db7565b005b61044e610e3d565b60405161045b919061300d565b60405180910390f35b61046c610e67565b6040516104799190612f47565b60405180910390f35b61049c600480360381019061049791906132e8565b610ef9565b005b6104b860048036038101906104b39190612f9f565b61107a565b6040516104c59190612f47565b60405180910390f35b6104e860048036038101906104e391906133c9565b611126565b005b61050460048036038101906104ff9190612f9f565b611188565b6040516105119190612f47565b60405180910390f35b61052261119a565b60405161052f9190612f47565b60405180910390f35b610552600480360381019061054d919061344c565b611228565b60405161055f9190612e93565b60405180910390f35b610582600480360381019061057d919061348c565b6112bc565b005b61059e6004803603810190610599919061328f565b6114cb565b005b60006105ab826115c3565b9050919050565b6060600080546105c190613546565b80601f01602080910402602001604051908101604052809291908181526020018280546105ed90613546565b801561063a5780601f1061060f5761010080835404028352916020019161063a565b820191906000526020600020905b81548152906001019060200180831161061d57829003601f168201915b5050505050905090565b600061064f8261163d565b61068e576040517f08c379a0000000000000000000000000000000000000000000000000000000008152600401610685906135ea565b60405180910390fd5b6004600083815260200190815260200160002060009054906101000a900473ffffffffffffffffffffffffffffffffffffffff169050919050565b60006106d482610b19565b90508073ffffffffffffffffffffffffffffffffffffffff168373ffffffffffffffffffffffffffffffffffffffff161415610745576040517f08c379a000000000000000000000000000000000000000000000000000000000815260040161073c9061367c565b60405180910390fd5b8073ffffffffffffffffffffffffffffffffffffffff166107646116a9565b73ffffffffffffffffffffffffffffffffffffffff16148061079357506107928161078d6116a9565b611228565b5b6107d2576040517f08c379a00000000000000000000000000000000000000000000000000000000081526004016107c99061370e565b60405180910390fd5b6107dc83836116b1565b505050565b6000600880549050905090565b6107ff6107f96116a9565b8261176a565b61083e576040517f08c379a0000000000000000000000000000000000000000000000000000000008152600401610835906137a0565b60405180910390fd5b610849838383611848565b505050565b600061085983610bcb565b821061089a576040517f08c379a000000000000000000000000000000000000000000000000000000000815260040161089190613832565b60405180910390fd5b600660008473ffffffffffffffffffffffffffffffffffffffff1673ffffffffffffffffffffffffffffffffffffffff168152602001908152602001600020600083815260200190815260200160002054905092915050565b610fa081565b6109016116a9565b73ffffffffffffffffffffffffffffffffffffffff1661091f610e3d565b73ffffffffffffffffffffffffffffffffffffffff1614610975576040517f08c379a000000000000000000000000000000000000000000000000000000000815260040161096c9061389e565b60405180910390fd5b61097d611aa4565b565b61099a83838360405180602001604052806000815250611126565b505050565b6109b06109aa6116a9565b8261176a565b6109ef576040517f08c379a00000000000000000000000000000000000000000000000000000000081526004016109e690613930565b60405180910390fd5b6109f881611b46565b50565b6000610a056107e1565b8210610a46576040517f08c379a0000000000000000000000000000000000000000000000000000000008152600401610a3d906139c2565b60405180910390fd5b60088281548110610a5a57610a596139e2565b5b90600052602060002001549050919050565b610a746116a9565b73ffffffffffffffffffffffffffffffffffffffff16610a92610e3d565b73ffffffffffffffffffffffffffffffffffffffff1614610ae8576040517f08c379a0000000000000000000000000000000000000000000000000000000008152600401610adf9061389e565b60405180910390fd5b8060109080519060200190610afe929190612cfc565b5050565b6000600b60009054906101000a900460ff16905090565b6000806002600084815260200190815260200160002060009054906101000a900473ffffffffffffffffffffffffffffffffffffffff169050600073ffffffffffffffffffffffffffffffffffffffff168173ffffffffffffffffffffffffffffffffffffffff161415610bc2576040517f08c379a0000000000000000000000000000000000000000000000000000000008152600401610bb990613a83565b60405180910390fd5b80915050919050565b60008073ffffffffffffffffffffffffffffffffffffffff168273ffffffffffffffffffffffffffffffffffffffff161415610c3c576040517f08c379a0000000000000000000000000000000000000000000000000000000008152600401610c3390613b15565b60405180910390fd5b600360008373ffffffffffffffffffffffffffffffffffffffff1673ffffffffffffffffffffffffffffffffffffffff168152602001908152602001600020549050919050565b610c8b6116a9565b73ffffffffffffffffffffffffffffffffffffffff16610ca9610e3d565b73ffffffffffffffffffffffffffffffffffffffff1614610cff576040517f08c379a0000000000000000000000000000000000000000000000000000000008152600401610cf69061389e565b60405180910390fd5b610d096000611bce565b565b600d8181548110610d1b57600080fd5b906000526020600020016000915090508054610d3690613546565b80601f0160208091040260200160405190810160405280929190818152602001828054610d6290613546565b8015610daf5780601f10610d8457610100808354040283529160200191610daf565b820191906000526020600020905b815481529060010190602001808311610d9257829003601f168201915b505050505081565b610dbf6116a9565b73ffffffffffffffffffffffffffffffffffffffff16610ddd610e3d565b73ffffffffffffffffffffffffffffffffffffffff1614610e33576040517f08c379a0000000000000000000000000000000000000000000000000000000008152600401610e2a9061389e565b60405180910390fd5b610e3b611c94565b565b6000600b60019054906101000a900473ffffffffffffffffffffffffffffffffffffffff16905090565b606060018054610e7690613546565b80601f0160208091040260200160405190810160405280929190818152602001828054610ea290613546565b8015610eef5780601f10610ec457610100808354040283529160200191610eef565b820191906000526020600020905b815481529060010190602001808311610ed257829003601f168201915b5050505050905090565b610f016116a9565b73ffffffffffffffffffffffffffffffffffffffff168273ffffffffffffffffffffffffffffffffffffffff161415610f6f576040517f08c379a0000000000000000000000000000000000000000000000000000000008152600401610f6690613b81565b60405180910390fd5b8060056000610f7c6116a9565b73ffffffffffffffffffffffffffffffffffffffff1673ffffffffffffffffffffffffffffffffffffffff16815260200190815260200160002060008473ffffffffffffffffffffffffffffffffffffffff1673ffffffffffffffffffffffffffffffffffffffff16815260200190815260200160002060006101000a81548160ff0219169083151502179055508173ffffffffffffffffffffffffffffffffffffffff166110296116a9565b73ffffffffffffffffffffffffffffffffffffffff167f17307eab39ab6107e8899845ad3d59bd9653f200f220920489ca2b5937696c318360405161106e9190612e93565b60405180910390a35050565b600f818154811061108a57600080fd5b9060005260206000200160009150905080546110a590613546565b80601f01602080910402602001604051908101604052809291908181526020018280546110d190613546565b801561111e5780601f106110f35761010080835404028352916020019161111e565b820191906000526020600020905b81548152906001019060200180831161110157829003601f168201915b505050505081565b6111376111316116a9565b8361176a565b611176576040517f08c379a000000000000000000000000000000000000000000000000000000000815260040161116d906137a0565b60405180910390fd5b61118284848484611d37565b50505050565b606061119382611d93565b9050919050565b601080546111a790613546565b80601f01602080910402602001604051908101604052809291908181526020018280546111d390613546565b80156112205780601f106111f557610100808354040283529160200191611220565b820191906000526020600020905b81548152906001019060200180831161120357829003601f168201915b505050505081565b6000600560008473ffffffffffffffffffffffffffffffffffffffff1673ffffffffffffffffffffffffffffffffffffffff16815260200190815260200160002060008373ffffffffffffffffffffffffffffffffffffffff1673ffffffffffffffffffffffffffffffffffffffff16815260200190815260200160002060009054906101000a900460ff16905092915050565b6112c46116a9565b73ffffffffffffffffffffffffffffffffffffffff166112e2610e3d565b73ffffffffffffffffffffffffffffffffffffffff1614611338576040517f08c379a000000000000000000000000000000000000000000000000000000000815260040161132f9061389e565b60405180910390fd5b610fa06113436107e1565b10611383576040517f08c379a000000000000000000000000000000000000000000000000000000000815260040161137a90613bed565b60405180910390fd5b600e826040516113939190613c49565b908152602001604051809103902060009054906101000a900460ff16156113b957600080fd5b600d829080600181540180825580915050600190039060005260206000200160009091909190915090805190602001906113f4929190612cfc565b506000600c5490506114068482611ee5565b6001600c546114159190613c8f565b600c819055506001600e8460405161142d9190613c49565b908152602001604051809103902060006101000a81548160ff02191690831515021790555061145c8184611f03565b600f82908060018154018082558091505060019003906000526020600020016000909190919091509080519060200190611497929190612cfc565b50807f1dc591759428e08ccba3a40f0652fc89bc0960f05a060e630fe68a33a26545ea60405160405180910390a250505050565b6114d36116a9565b73ffffffffffffffffffffffffffffffffffffffff166114f1610e3d565b73ffffffffffffffffffffffffffffffffffffffff1614611547576040517f08c379a000000000000000000000000000000000000000000000000000000000815260040161153e9061389e565b60405180910390fd5b600073ffffffffffffffffffffffffffffffffffffffff168173ffffffffffffffffffffffffffffffffffffffff1614156115b7576040517f08c379a00000000000000000000000000000000000000000000000000000000081526004016115ae90613d57565b60405180910390fd5b6115c081611bce565b50565b60007f780e9d63000000000000000000000000000000000000000000000000000000007bffffffffffffffffffffffffffffffffffffffffffffffffffffffff1916827bffffffffffffffffffffffffffffffffffffffffffffffffffffffff19161480611636575061163582611f77565b5b9050919050565b60008073ffffffffffffffffffffffffffffffffffffffff166002600084815260200190815260200160002060009054906101000a900473ffffffffffffffffffffffffffffffffffffffff1673ffffffffffffffffffffffffffffffffffffffff1614159050919050565b600033905090565b816004600083815260200190815260200160002060006101000a81548173ffffffffffffffffffffffffffffffffffffffff021916908373ffffffffffffffffffffffffffffffffffffffff160217905550808273ffffffffffffffffffffffffffffffffffffffff1661172483610b19565b73ffffffffffffffffffffffffffffffffffffffff167f8c5be1e5ebec7d5bd14f71427d1e84f3dd0314c0f7b2291e5b200ac8c7c3b92560405160405180910390a45050565b60006117758261163d565b6117b4576040517f08c379a00000000000000000000000000000000000000000000000000000000081526004016117ab90613de9565b60405180910390fd5b60006117bf83610b19565b90508073ffffffffffffffffffffffffffffffffffffffff168473ffffffffffffffffffffffffffffffffffffffff16148061182e57508373ffffffffffffffffffffffffffffffffffffffff1661181684610644565b73ffffffffffffffffffffffffffffffffffffffff16145b8061183f575061183e8185611228565b5b91505092915050565b8273ffffffffffffffffffffffffffffffffffffffff1661186882610b19565b73ffffffffffffffffffffffffffffffffffffffff16146118be576040517f08c379a00000000000000000000000000000000000000000000000000000000081526004016118b590613e7b565b60405180910390fd5b600073ffffffffffffffffffffffffffffffffffffffff168273ffffffffffffffffffffffffffffffffffffffff16141561192e576040517f08c379a000000000000000000000000000000000000000000000000000000000815260040161192590613f0d565b60405180910390fd5b611939838383612059565b6119446000826116b1565b6001600360008573ffffffffffffffffffffffffffffffffffffffff1673ffffffffffffffffffffffffffffffffffffffff16815260200190815260200160002060008282546119949190613f2d565b925050819055506001600360008473ffffffffffffffffffffffffffffffffffffffff1673ffffffffffffffffffffffffffffffffffffffff16815260200190815260200160002060008282546119eb9190613c8f565b92505081905550816002600083815260200190815260200160002060006101000a81548173ffffffffffffffffffffffffffffffffffffffff021916908373ffffffffffffffffffffffffffffffffffffffff160217905550808273ffffffffffffffffffffffffffffffffffffffff168473ffffffffffffffffffffffffffffffffffffffff167fddf252ad1be2c89b69c2b068fc378daa952ba7f163c4a11628f55a4df523b3ef60405160405180910390a4505050565b611aac610b02565b611aeb576040517f08c379a0000000000000000000000000000000000000000000000000000000008152600401611ae290613fad565b60405180910390fd5b6000600b60006101000a81548160ff0219169083151502179055507f5db9ee0a495bf2e6ff9c91a7834c1ba4fdd244a5e8aa4e537bd38aeae4b073aa611b2f6116a9565b604051611b3c919061300d565b60405180910390a1565b611b4e6116a9565b73ffffffffffffffffffffffffffffffffffffffff16611b6c610e3d565b73ffffffffffffffffffffffffffffffffffffffff1614611bc2576040517f08c379a0000000000000000000000000000000000000000000000000000000008152600401611bb99061389e565b60405180910390fd5b611bcb816120b1565b50565b6000600b60019054906101000a900473ffffffffffffffffffffffffffffffffffffffff16905081600b60016101000a81548173ffffffffffffffffffffffffffffffffffffffff021916908373ffffffffffffffffffffffffffffffffffffffff1602179055508173ffffffffffffffffffffffffffffffffffffffff168173ffffffffffffffffffffffffffffffffffffffff167f8be0079c531659141344cd1fd0a4f28419497f9722a3daafe3b4186f6b6457e060405160405180910390a35050565b611c9c610b02565b15611cdc576040517f08c379a0000000000000000000000000000000000000000000000000000000008152600401611cd390614019565b60405180910390fd5b6001600b60006101000a81548160ff0219169083151502179055507f62e78cea01bee320cd4e420270b5ea74000d11b0c9f74754ebdbfc544b05a258611d206116a9565b604051611d2d919061300d565b60405180910390a1565b611d42848484611848565b611d4e84848484612104565b611d8d576040517f08c379a0000000000000000000000000000000000000000000000000000000008152600401611d84906140ab565b60405180910390fd5b50505050565b6060611d9e8261163d565b611ddd576040517f08c379a0000000000000000000000000000000000000000000000000000000008152600401611dd49061413d565b60405180910390fd5b6000600a60008481526020019081526020016000208054611dfd90613546565b80601f0160208091040260200160405190810160405280929190818152602001828054611e2990613546565b8015611e765780601f10611e4b57610100808354040283529160200191611e76565b820191906000526020600020905b815481529060010190602001808311611e5957829003601f168201915b505050505090506000611e8761228c565b9050600081511415611e9d578192505050611ee0565b600082511115611ed2578082604051602001611eba92919061415d565b60405160208183030381529060405292505050611ee0565b611edb8461231e565b925050505b919050565b611eff8282604051806020016040528060008152506123c5565b5050565b611f0c8261163d565b611f4b576040517f08c379a0000000000000000000000000000000000000000000000000000000008152600401611f42906141f3565b60405180910390fd5b80600a60008481526020019081526020016000209080519060200190611f72929190612cfc565b505050565b60007f80ac58cd000000000000000000000000000000000000000000000000000000007bffffffffffffffffffffffffffffffffffffffffffffffffffffffff1916827bffffffffffffffffffffffffffffffffffffffffffffffffffffffff1916148061204257507f5b5e139f000000000000000000000000000000000000000000000000000000007bffffffffffffffffffffffffffffffffffffffffffffffffffffffff1916827bffffffffffffffffffffffffffffffffffffffffffffffffffffffff1916145b80612052575061205182612420565b5b9050919050565b612061610b02565b156120a1576040517f08c379a000000000000000000000000000000000000000000000000000000000815260040161209890614019565b60405180910390fd5b6120ac83838361248a565b505050565b6120ba8161259e565b6000600a600083815260200190815260200160002080546120da90613546565b90501461210157600a600082815260200190815260200160002060006121009190612d82565b5b50565b60006121258473ffffffffffffffffffffffffffffffffffffffff166126af565b1561227f578373ffffffffffffffffffffffffffffffffffffffff1663150b7a0261214e6116a9565b8786866040518563ffffffff1660e01b81526004016121709493929190614268565b6020604051808303816000875af19250505080156121ac57506040513d601f19601f820116820180604052508101906121a991906142c9565b60015b61222f573d80600081146121dc576040519150601f19603f3d011682016040523d82523d6000602084013e6121e1565b606091505b50600081511415612227576040517f08c379a000000000000000000000000000000000000000000000000000000000815260040161221e906140ab565b60405180910390fd5b805181602001fd5b63150b7a0260e01b7bffffffffffffffffffffffffffffffffffffffffffffffffffffffff1916817bffffffffffffffffffffffffffffffffffffffffffffffffffffffff191614915050612284565b600190505b949350505050565b60606010805461229b90613546565b80601f01602080910402602001604051908101604052809291908181526020018280546122c790613546565b80156123145780601f106122e957610100808354040283529160200191612314565b820191906000526020600020905b8154815290600101906020018083116122f757829003601f168201915b5050505050905090565b60606123298261163d565b612368576040517f08c379a000000000000000000000000000000000000000000000000000000000815260040161235f90614368565b60405180910390fd5b600061237261228c565b9050600081511161239257604051806020016040528060008152506123bd565b8061239c846126c2565b6040516020016123ad92919061415d565b6040516020818303038152906040525b915050919050565b6123cf8383612823565b6123dc6000848484612104565b61241b576040517f08c379a0000000000000000000000000000000000000000000000000000000008152600401612412906140ab565b60405180910390fd5b505050565b60007f01ffc9a7000000000000000000000000000000000000000000000000000000007bffffffffffffffffffffffffffffffffffffffffffffffffffffffff1916827bffffffffffffffffffffffffffffffffffffffffffffffffffffffff1916149050919050565b6124958383836129f1565b600073ffffffffffffffffffffffffffffffffffffffff168373ffffffffffffffffffffffffffffffffffffffff1614156124d8576124d3816129f6565b612517565b8173ffffffffffffffffffffffffffffffffffffffff168373ffffffffffffffffffffffffffffffffffffffff1614612516576125158382612a3f565b5b5b600073ffffffffffffffffffffffffffffffffffffffff168273ffffffffffffffffffffffffffffffffffffffff16141561255a5761255581612bac565b612599565b8273ffffffffffffffffffffffffffffffffffffffff168273ffffffffffffffffffffffffffffffffffffffff1614612598576125978282612c7d565b5b5b505050565b60006125a982610b19565b90506125b781600084612059565b6125c26000836116b1565b6001600360008373ffffffffffffffffffffffffffffffffffffffff1673ffffffffffffffffffffffffffffffffffffffff16815260200190815260200160002060008282546126129190613f2d565b925050819055506002600083815260200190815260200160002060006101000a81549073ffffffffffffffffffffffffffffffffffffffff021916905581600073ffffffffffffffffffffffffffffffffffffffff168273ffffffffffffffffffffffffffffffffffffffff167fddf252ad1be2c89b69c2b068fc378daa952ba7f163c4a11628f55a4df523b3ef60405160405180910390a45050565b600080823b905060008111915050919050565b6060600082141561270a576040518060400160405280600181526020017f3000000000000000000000000000000000000000000000000000000000000000815250905061281e565b600082905060005b6000821461273c57808061272590614388565b915050600a826127359190614400565b9150612712565b60008167ffffffffffffffff8111156127585761275761311b565b5b6040519080825280601f01601f19166020018201604052801561278a5781602001600182028036833780820191505090505b5090505b60008514612817576001826127a39190613f2d565b9150600a856127b29190614431565b60306127be9190613c8f565b60f81b8183815181106127d4576127d36139e2565b5b60200101907effffffffffffffffffffffffffffffffffffffffffffffffffffffffffffff1916908160001a905350600a856128109190614400565b945061278e565b8093505050505b919050565b600073ffffffffffffffffffffffffffffffffffffffff168273ffffffffffffffffffffffffffffffffffffffff161415612893576040517f08c379a000000000000000000000000000000000000000000000000000000000815260040161288a906144ae565b60405180910390fd5b61289c8161163d565b156128dc576040517f08c379a00000000000000000000000000000000000000000000000000000000081526004016128d39061451a565b60405180910390fd5b6128e860008383612059565b6001600360008473ffffffffffffffffffffffffffffffffffffffff1673ffffffffffffffffffffffffffffffffffffffff16815260200190815260200160002060008282546129389190613c8f565b92505081905550816002600083815260200190815260200160002060006101000a81548173ffffffffffffffffffffffffffffffffffffffff021916908373ffffffffffffffffffffffffffffffffffffffff160217905550808273ffffffffffffffffffffffffffffffffffffffff16600073ffffffffffffffffffffffffffffffffffffffff167fddf252ad1be2c89b69c2b068fc378daa952ba7f163c4a11628f55a4df523b3ef60405160405180910390a45050565b505050565b6008805490506009600083815260200190815260200160002081905550600881908060018154018082558091505060019003906000526020600020016000909190919091505550565b60006001612a4c84610bcb565b612a569190613f2d565b9050600060076000848152602001908152602001600020549050818114612b3b576000600660008673ffffffffffffffffffffffffffffffffffffffff1673ffffffffffffffffffffffffffffffffffffffff168152602001908152602001600020600084815260200190815260200160002054905080600660008773ffffffffffffffffffffffffffffffffffffffff1673ffffffffffffffffffffffffffffffffffffffff168152602001908152602001600020600084815260200190815260200160002081905550816007600083815260200190815260200160002081905550505b6007600084815260200190815260200160002060009055600660008573ffffffffffffffffffffffffffffffffffffffff1673ffffffffffffffffffffffffffffffffffffffff16815260200190815260200160002060008381526020019081526020016000206000905550505050565b60006001600880549050612bc09190613f2d565b9050600060096000848152602001908152602001600020549050600060088381548110612bf057612bef6139e2565b5b906000526020600020015490508060088381548110612c1257612c116139e2565b5b906000526020600020018190555081600960008381526020019081526020016000208190555060096000858152602001908152602001600020600090556008805480612c6157612c6061453a565b5b6001900381819060005260206000200160009055905550505050565b6000612c8883610bcb565b905081600660008573ffffffffffffffffffffffffffffffffffffffff1673ffffffffffffffffffffffffffffffffffffffff168152602001908152602001600020600083815260200190815260200160002081905550806007600084815260200190815260200160002081905550505050565b828054612d0890613546565b90600052602060002090601f016020900481019282612d2a5760008555612d71565b82601f10612d4357805160ff1916838001178555612d71565b82800160010185558215612d71579182015b82811115612d70578251825591602001919060010190612d55565b5b509050612d7e9190612dc2565b5090565b508054612d8e90613546565b6000825580601f10612da05750612dbf565b601f016020900490600052602060002090810190612dbe9190612dc2565b5b50565b5b80821115612ddb576000816000905550600101612dc3565b5090565b6000604051905090565b600080fd5b600080fd5b60007fffffffff0000000000000000000000000000000000000000000000000000000082169050919050565b612e2881612df3565b8114612e3357600080fd5b50565b600081359050612e4581612e1f565b92915050565b600060208284031215612e6157612e60612de9565b5b6000612e6f84828501612e36565b91505092915050565b60008115159050919050565b612e8d81612e78565b82525050565b6000602082019050612ea86000830184612e84565b92915050565b600081519050919050565b600082825260208201905092915050565b60005b83811015612ee8578082015181840152602081019050612ecd565b83811115612ef7576000848401525b50505050565b6000601f19601f8301169050919050565b6000612f1982612eae565b612f238185612eb9565b9350612f33818560208601612eca565b612f3c81612efd565b840191505092915050565b60006020820190508181036000830152612f618184612f0e565b905092915050565b6000819050919050565b612f7c81612f69565b8114612f8757600080fd5b50565b600081359050612f9981612f73565b92915050565b600060208284031215612fb557612fb4612de9565b5b6000612fc384828501612f8a565b91505092915050565b600073ffffffffffffffffffffffffffffffffffffffff82169050919050565b6000612ff782612fcc565b9050919050565b61300781612fec565b82525050565b60006020820190506130226000830184612ffe565b92915050565b61303181612fec565b811461303c57600080fd5b50565b60008135905061304e81613028565b92915050565b6000806040838503121561306b5761306a612de9565b5b60006130798582860161303f565b925050602061308a85828601612f8a565b9150509250929050565b61309d81612f69565b82525050565b60006020820190506130b86000830184613094565b92915050565b6000806000606084860312156130d7576130d6612de9565b5b60006130e58682870161303f565b93505060206130f68682870161303f565b925050604061310786828701612f8a565b9150509250925092565b600080fd5b600080fd5b7f4e487b7100000000000000000000000000000000000000000000000000000000600052604160045260246000fd5b61315382612efd565b810181811067ffffffffffffffff821117156131725761317161311b565b5b80604052505050565b6000613185612ddf565b9050613191828261314a565b919050565b600067ffffffffffffffff8211156131b1576131b061311b565b5b6131ba82612efd565b9050602081019050919050565b82818337600083830152505050565b60006131e96131e484613196565b61317b565b90508281526020810184848401111561320557613204613116565b5b6132108482856131c7565b509392505050565b600082601f83011261322d5761322c613111565b5b813561323d8482602086016131d6565b91505092915050565b60006020828403121561325c5761325b612de9565b5b600082013567ffffffffffffffff81111561327a57613279612dee565b5b61328684828501613218565b91505092915050565b6000602082840312156132a5576132a4612de9565b5b60006132b38482850161303f565b91505092915050565b6132c581612e78565b81146132d057600080fd5b50565b6000813590506132e2816132bc565b92915050565b600080604083850312156132ff576132fe612de9565b5b600061330d8582860161303f565b925050602061331e858286016132d3565b9150509250929050565b600067ffffffffffffffff8211156133435761334261311b565b5b61334c82612efd565b9050602081019050919050565b600061336c61336784613328565b61317b565b90508281526020810184848401111561338857613387613116565b5b6133938482856131c7565b509392505050565b600082601f8301126133b0576133af613111565b5b81356133c0848260208601613359565b91505092915050565b600080600080608085870312156133e3576133e2612de9565b5b60006133f18782880161303f565b94505060206134028782880161303f565b935050604061341387828801612f8a565b925050606085013567ffffffffffffffff81111561343457613433612dee565b5b6134408782880161339b565b91505092959194509250565b6000806040838503121561346357613462612de9565b5b60006134718582860161303f565b92505060206134828582860161303f565b9150509250929050565b6000806000606084860312156134a5576134a4612de9565b5b60006134b38682870161303f565b935050602084013567ffffffffffffffff8111156134d4576134d3612dee565b5b6134e086828701613218565b925050604084013567ffffffffffffffff81111561350157613500612dee565b5b61350d86828701613218565b9150509250925092565b7f4e487b7100000000000000000000000000000000000000000000000000000000600052602260045260246000fd5b6000600282049050600182168061355e57607f821691505b6020821081141561357257613571613517565b5b50919050565b7f4552433732313a20617070726f76656420717565727920666f72206e6f6e657860008201527f697374656e7420746f6b656e0000000000000000000000000000000000000000602082015250565b60006135d4602c83612eb9565b91506135df82613578565b604082019050919050565b60006020820190508181036000830152613603816135c7565b9050919050565b7f4552433732313a20617070726f76616c20746f2063757272656e74206f776e6560008201527f7200000000000000000000000000000000000000000000000000000000000000602082015250565b6000613666602183612eb9565b91506136718261360a565b604082019050919050565b6000602082019050818103600083015261369581613659565b9050919050565b7f4552433732313a20617070726f76652063616c6c6572206973206e6f74206f7760008201527f6e6572206e6f7220617070726f76656420666f7220616c6c0000000000000000602082015250565b60006136f8603883612eb9565b91506137038261369c565b604082019050919050565b60006020820190508181036000830152613727816136eb565b9050919050565b7f4552433732313a207472616e736665722063616c6c6572206973206e6f74206f60008201527f776e6572206e6f7220617070726f766564000000000000000000000000000000602082015250565b600061378a603183612eb9565b91506137958261372e565b604082019050919050565b600060208201905081810360008301526137b98161377d565b9050919050565b7f455243373231456e756d657261626c653a206f776e657220696e646578206f7560008201527f74206f6620626f756e6473000000000000000000000000000000000000000000602082015250565b600061381c602b83612eb9565b9150613827826137c0565b604082019050919050565b6000602082019050818103600083015261384b8161380f565b9050919050565b7f4f776e61626c653a2063616c6c6572206973206e6f7420746865206f776e6572600082015250565b6000613888602083612eb9565b915061389382613852565b602082019050919050565b600060208201905081810360008301526138b78161387b565b9050919050565b7f4552433732314275726e61626c653a2063616c6c6572206973206e6f74206f7760008201527f6e6572206e6f7220617070726f76656400000000000000000000000000000000602082015250565b600061391a603083612eb9565b9150613925826138be565b604082019050919050565b600060208201905081810360008301526139498161390d565b9050919050565b7f455243373231456e756d657261626c653a20676c6f62616c20696e646578206f60008201527f7574206f6620626f756e64730000000000000000000000000000000000000000602082015250565b60006139ac602c83612eb9565b91506139b782613950565b604082019050919050565b600060208201905081810360008301526139db8161399f565b9050919050565b7f4e487b7100000000000000000000000000000000000000000000000000000000600052603260045260246000fd5b7f4552433732313a206f776e657220717565727920666f72206e6f6e657869737460008201527f656e7420746f6b656e0000000000000000000000000000000000000000000000602082015250565b6000613a6d602983612eb9565b9150613a7882613a11565b604082019050919050565b60006020820190508181036000830152613a9c81613a60565b9050919050565b7f4552433732313a2062616c616e636520717565727920666f7220746865207a6560008201527f726f206164647265737300000000000000000000000000000000000000000000602082015250565b6000613aff602a83612eb9565b9150613b0a82613aa3565b604082019050919050565b60006020820190508181036000830152613b2e81613af2565b9050919050565b7f4552433732313a20617070726f766520746f2063616c6c657200000000000000600082015250565b6000613b6b601983612eb9565b9150613b7682613b35565b602082019050919050565b60006020820190508181036000830152613b9a81613b5e565b9050919050565b7f546f74616c20737570706c792069732065780000000000000000000000000000600082015250565b6000613bd7601283612eb9565b9150613be282613ba1565b602082019050919050565b60006020820190508181036000830152613c0681613bca565b9050919050565b600081905092915050565b6000613c2382612eae565b613c2d8185613c0d565b9350613c3d818560208601612eca565b80840191505092915050565b6000613c558284613c18565b915081905092915050565b7f4e487b7100000000000000000000000000000000000000000000000000000000600052601160045260246000fd5b6000613c9a82612f69565b9150613ca583612f69565b9250827fffffffffffffffffffffffffffffffffffffffffffffffffffffffffffffffff03821115613cda57613cd9613c60565b5b828201905092915050565b7f4f776e61626c653a206e6577206f776e657220697320746865207a65726f206160008201527f6464726573730000000000000000000000000000000000000000000000000000602082015250565b6000613d41602683612eb9565b9150613d4c82613ce5565b604082019050919050565b60006020820190508181036000830152613d7081613d34565b9050919050565b7f4552433732313a206f70657261746f7220717565727920666f72206e6f6e657860008201527f697374656e7420746f6b656e0000000000000000000000000000000000000000602082015250565b6000613dd3602c83612eb9565b9150613dde82613d77565b604082019050919050565b60006020820190508181036000830152613e0281613dc6565b9050919050565b7f4552433732313a207472616e73666572206f6620746f6b656e2074686174206960008201527f73206e6f74206f776e0000000000000000000000000000000000000000000000602082015250565b6000613e65602983612eb9565b9150613e7082613e09565b604082019050919050565b60006020820190508181036000830152613e9481613e58565b9050919050565b7f4552433732313a207472616e7366657220746f20746865207a65726f2061646460008201527f7265737300000000000000000000000000000000000000000000000000000000602082015250565b6000613ef7602483612eb9565b9150613f0282613e9b565b604082019050919050565b60006020820190508181036000830152613f2681613eea565b9050919050565b6000613f3882612f69565b9150613f4383612f69565b925082821015613f5657613f55613c60565b5b828203905092915050565b7f5061757361626c653a206e6f7420706175736564000000000000000000000000600082015250565b6000613f97601483612eb9565b9150613fa282613f61565b602082019050919050565b60006020820190508181036000830152613fc681613f8a565b9050919050565b7f5061757361626c653a2070617573656400000000000000000000000000000000600082015250565b6000614003601083612eb9565b915061400e82613fcd565b602082019050919050565b6000602082019050818103600083015261403281613ff6565b9050919050565b7f4552433732313a207472616e7366657220746f206e6f6e20455243373231526560008201527f63656976657220696d706c656d656e7465720000000000000000000000000000602082015250565b6000614095603283612eb9565b91506140a082614039565b604082019050919050565b600060208201905081810360008301526140c481614088565b9050919050565b7f45524337323155524953746f726167653a2055524920717565727920666f722060008201527f6e6f6e6578697374656e7420746f6b656e000000000000000000000000000000602082015250565b6000614127603183612eb9565b9150614132826140cb565b604082019050919050565b600060208201905081810360008301526141568161411a565b9050919050565b60006141698285613c18565b91506141758284613c18565b91508190509392505050565b7f45524337323155524953746f726167653a2055524920736574206f66206e6f6e60008201527f6578697374656e7420746f6b656e000000000000000000000000000000000000602082015250565b60006141dd602e83612eb9565b91506141e882614181565b604082019050919050565b6000602082019050818103600083015261420c816141d0565b9050919050565b600081519050919050565b600082825260208201905092915050565b600061423a82614213565b614244818561421e565b9350614254818560208601612eca565b61425d81612efd565b840191505092915050565b600060808201905061427d6000830187612ffe565b61428a6020830186612ffe565b6142976040830185613094565b81810360608301526142a9818461422f565b905095945050505050565b6000815190506142c381612e1f565b92915050565b6000602082840312156142df576142de612de9565b5b60006142ed848285016142b4565b91505092915050565b7f4552433732314d657461646174613a2055524920717565727920666f72206e6f60008201527f6e6578697374656e7420746f6b656e0000000000000000000000000000000000602082015250565b6000614352602f83612eb9565b915061435d826142f6565b604082019050919050565b6000602082019050818103600083015261438181614345565b9050919050565b600061439382612f69565b91507fffffffffffffffffffffffffffffffffffffffffffffffffffffffffffffffff8214156143c6576143c5613c60565b5b600182019050919050565b7f4e487b7100000000000000000000000000000000000000000000000000000000600052601260045260246000fd5b600061440b82612f69565b915061441683612f69565b925082614426576144256143d1565b5b828204905092915050565b600061443c82612f69565b915061444783612f69565b925082614457576144566143d1565b5b828206905092915050565b7f4552433732313a206d696e7420746f20746865207a65726f2061646472657373600082015250565b6000614498602083612eb9565b91506144a382614462565b602082019050919050565b600060208201905081810360008301526144c78161448b565b9050919050565b7f4552433732313a20746f6b656e20616c7265616479206d696e74656400000000600082015250565b6000614504601c83612eb9565b915061450f826144ce565b602082019050919050565b60006020820190508181036000830152614533816144f7565b9050919050565b7f4e487b7100000000000000000000000000000000000000000000000000000000600052603160045260246000fdfea264697066735822122070be7f81414ee05e318dbe72042295cb68abdbff95376473edac8a3743e4d06664736f6c634300080a0033",
  "immutableReferences": {},
  "source": "pragma solidity ^0.8.2;\n\nimport \"@openzeppelin/contracts/token/ERC721/ERC721.sol\";\nimport \"@openzeppelin/contracts/token/ERC721/extensions/ERC721Enumerable.sol\";\nimport \"@openzeppelin/contracts/token/ERC721/extensions/ERC721URIStorage.sol\";\nimport \"@openzeppelin/contracts/security/Pausable.sol\";\nimport \"@openzeppelin/contracts/token/ERC721/extensions/ERC721Burnable.sol\";\nimport \"@openzeppelin/contracts/access/Ownable.sol\";\n\ncontract KeyToMetaverse is\n    ERC721,\n    ERC721Enumerable,\n    ERC721URIStorage,\n    Pausable,\n    ERC721Burnable,\n    Ownable\n{\n    uint256 private tokenIdTracker = 1;\n\n    // NFT list\n    string[] public nftList;\n\n    // NFT status\n    mapping(string => bool) nftExists;\n\n    // NFT word.\n    string[] public nftWords;\n\n    // Max token can be minted.\n    uint256 public constant MAX_SUPPLY = 4000;\n\n    string public baseTokenURI;\n\n    // Event\n    event welcomeToK2M(uint256 indexed id);\n\n    constructor(string memory name, string memory symbol)\n        ERC721(name, symbol)\n    {}\n\n    function pause() public onlyOwner {\n        _pause();\n    }\n\n    function unpause() public onlyOwner {\n        _unpause();\n    }\n\n    function _baseURI() internal view virtual override returns (string memory) {\n        return baseTokenURI;\n    }\n\n    function setBaseURI(string memory baseURI) public onlyOwner {\n        baseTokenURI = baseURI;\n    }\n\n    function safeMint(\n        address _to,\n        string memory _tokenURI,\n        string memory _nftWord\n    ) external onlyOwner {\n        require(totalSupply() < MAX_SUPPLY, \"Total supply is ex\");\n        require(!nftExists[_tokenURI]);\n        nftList.push(_tokenURI);\n        // uint256 tokenId = tokenIdTracker.current();\n        uint256 tokenId = tokenIdTracker;\n        _safeMint(_to, tokenId);\n        // tokenIdTracker.increment();\n        tokenIdTracker = tokenIdTracker + 1;\n        nftExists[_tokenURI] = true;\n\n        // setting the token tokenURI\n        _setTokenURI(tokenId, _tokenURI);\n        nftWords.push(_nftWord);\n\n        emit welcomeToK2M(tokenId);\n    }\n\n    function _beforeTokenTransfer(\n        address from,\n        address to,\n        uint256 tokenId\n    ) internal override(ERC721, ERC721Enumerable) whenNotPaused {\n        super._beforeTokenTransfer(from, to, tokenId);\n    }\n\n    // The following functions are overrides required by Solidity.\n\n    function _burn(uint256 tokenId)\n        internal\n        override(ERC721, ERC721URIStorage)\n        onlyOwner\n    {\n        super._burn(tokenId);\n    }\n\n    function tokenURI(uint256 tokenId)\n        public\n        view\n        override(ERC721, ERC721URIStorage)\n        returns (string memory)\n    {\n        return super.tokenURI(tokenId);\n    }\n\n    function supportsInterface(bytes4 interfaceId)\n        public\n        view\n        override(ERC721, ERC721Enumerable)\n        returns (bool)\n    {\n        return super.supportsInterface(interfaceId);\n    }\n}\n",
  "sourcePath": "/Users/aravinth/Repo/codegama/blockchain/binace-nftclient-frontend-base/src/contracts/KeyToMetaverse.sol",
  "compiler": {
    "name": "solc",
    "version": "0.8.10+commit.fc410830.Emscripten.clang"
  },
  "schemaVersion": "3.3.4",
  "updatedAt": "2021-11-10T08:50:56.337Z",
  "devdoc": {
    "kind": "dev",
    "methods": {
      "approve(address,uint256)": {
        "details": "See {IERC721-approve}."
      },
      "balanceOf(address)": {
        "details": "See {IERC721-balanceOf}."
      },
      "burn(uint256)": {
        "details": "Burns `tokenId`. See {ERC721-_burn}. Requirements: - The caller must own `tokenId` or be an approved operator."
      },
      "getApproved(uint256)": {
        "details": "See {IERC721-getApproved}."
      },
      "isApprovedForAll(address,address)": {
        "details": "See {IERC721-isApprovedForAll}."
      },
      "name()": {
        "details": "See {IERC721Metadata-name}."
      },
      "owner()": {
        "details": "Returns the address of the current owner."
      },
      "ownerOf(uint256)": {
        "details": "See {IERC721-ownerOf}."
      },
      "paused()": {
        "details": "Returns true if the contract is paused, and false otherwise."
      },
      "renounceOwnership()": {
        "details": "Leaves the contract without owner. It will not be possible to call `onlyOwner` functions anymore. Can only be called by the current owner. NOTE: Renouncing ownership will leave the contract without an owner, thereby removing any functionality that is only available to the owner."
      },
      "safeTransferFrom(address,address,uint256)": {
        "details": "See {IERC721-safeTransferFrom}."
      },
      "safeTransferFrom(address,address,uint256,bytes)": {
        "details": "See {IERC721-safeTransferFrom}."
      },
      "setApprovalForAll(address,bool)": {
        "details": "See {IERC721-setApprovalForAll}."
      },
      "symbol()": {
        "details": "See {IERC721Metadata-symbol}."
      },
      "tokenByIndex(uint256)": {
        "details": "See {IERC721Enumerable-tokenByIndex}."
      },
      "tokenOfOwnerByIndex(address,uint256)": {
        "details": "See {IERC721Enumerable-tokenOfOwnerByIndex}."
      },
      "totalSupply()": {
        "details": "See {IERC721Enumerable-totalSupply}."
      },
      "transferFrom(address,address,uint256)": {
        "details": "See {IERC721-transferFrom}."
      },
      "transferOwnership(address)": {
        "details": "Transfers ownership of the contract to a new account (`newOwner`). Can only be called by the current owner."
      }
    },
    "version": 1
  },
  "userdoc": {
    "kind": "user",
    "methods": {},
    "version": 1
  }
}