{
  "contractName": "KeyToMetaverseBSC",
  "abi": [
    {
      "inputs": [
        {
          "internalType": "string",
          "name": "name",
          "type": "string"
        },
        {
          "internalType": "string",
          "name": "symbol",
          "type": "string"
        },
        {
          "internalType": "address",
          "name": "ownerAddress",
          "type": "address"
        }
      ],
      "stateMutability": "nonpayable",
      "type": "constructor"
    },
    {
      "anonymous": false,
      "inputs": [
        {
          "indexed": true,
          "internalType": "address",
          "name": "owner",
          "type": "address"
        },
        {
          "indexed": true,
          "internalType": "address",
          "name": "approved",
          "type": "address"
        },
        {
          "indexed": true,
          "internalType": "uint256",
          "name": "tokenId",
          "type": "uint256"
        }
      ],
      "name": "Approval",
      "type": "event"
    },
    {
      "anonymous": false,
      "inputs": [
        {
          "indexed": true,
          "internalType": "address",
          "name": "owner",
          "type": "address"
        },
        {
          "indexed": true,
          "internalType": "address",
          "name": "operator",
          "type": "address"
        },
        {
          "indexed": false,
          "internalType": "bool",
          "name": "approved",
          "type": "bool"
        }
      ],
      "name": "ApprovalForAll",
      "type": "event"
    },
    {
      "anonymous": false,
      "inputs": [
        {
          "indexed": true,
          "internalType": "address",
          "name": "previousOwner",
          "type": "address"
        },
        {
          "indexed": true,
          "internalType": "address",
          "name": "newOwner",
          "type": "address"
        }
      ],
      "name": "OwnershipTransferred",
      "type": "event"
    },
    {
      "anonymous": false,
      "inputs": [
        {
          "indexed": false,
          "internalType": "address",
          "name": "account",
          "type": "address"
        }
      ],
      "name": "Paused",
      "type": "event"
    },
    {
      "anonymous": false,
      "inputs": [
        {
          "indexed": true,
          "internalType": "bytes32",
          "name": "role",
          "type": "bytes32"
        },
        {
          "indexed": true,
          "internalType": "bytes32",
          "name": "previousAdminRole",
          "type": "bytes32"
        },
        {
          "indexed": true,
          "internalType": "bytes32",
          "name": "newAdminRole",
          "type": "bytes32"
        }
      ],
      "name": "RoleAdminChanged",
      "type": "event"
    },
    {
      "anonymous": false,
      "inputs": [
        {
          "indexed": true,
          "internalType": "bytes32",
          "name": "role",
          "type": "bytes32"
        },
        {
          "indexed": true,
          "internalType": "address",
          "name": "account",
          "type": "address"
        },
        {
          "indexed": true,
          "internalType": "address",
          "name": "sender",
          "type": "address"
        }
      ],
      "name": "RoleGranted",
      "type": "event"
    },
    {
      "anonymous": false,
      "inputs": [
        {
          "indexed": true,
          "internalType": "bytes32",
          "name": "role",
          "type": "bytes32"
        },
        {
          "indexed": true,
          "internalType": "address",
          "name": "account",
          "type": "address"
        },
        {
          "indexed": true,
          "internalType": "address",
          "name": "sender",
          "type": "address"
        }
      ],
      "name": "RoleRevoked",
      "type": "event"
    },
    {
      "anonymous": false,
      "inputs": [
        {
          "indexed": true,
          "internalType": "address",
          "name": "from",
          "type": "address"
        },
        {
          "indexed": true,
          "internalType": "address",
          "name": "to",
          "type": "address"
        },
        {
          "indexed": true,
          "internalType": "uint256",
          "name": "tokenId",
          "type": "uint256"
        }
      ],
      "name": "Transfer",
      "type": "event"
    },
    {
      "anonymous": false,
      "inputs": [
        {
          "indexed": false,
          "internalType": "address",
          "name": "account",
          "type": "address"
        }
      ],
      "name": "Unpaused",
      "type": "event"
    },
    {
      "anonymous": false,
      "inputs": [
        {
          "indexed": true,
          "internalType": "uint256",
          "name": "id",
          "type": "uint256"
        }
      ],
      "name": "welcomeToK2M",
      "type": "event"
    },
    {
      "inputs": [],
      "name": "BURNER_ROLE",
      "outputs": [
        {
          "internalType": "bytes32",
          "name": "",
          "type": "bytes32"
        }
      ],
      "stateMutability": "view",
      "type": "function",
      "constant": true
    },
    {
      "inputs": [],
      "name": "DEFAULT_ADMIN_ROLE",
      "outputs": [
        {
          "internalType": "bytes32",
          "name": "",
          "type": "bytes32"
        }
      ],
      "stateMutability": "view",
      "type": "function",
      "constant": true
    },
    {
      "inputs": [],
      "name": "MAX_SUPPLY",
      "outputs": [
        {
          "internalType": "uint256",
          "name": "",
          "type": "uint256"
        }
      ],
      "stateMutability": "view",
      "type": "function",
      "constant": true
    },
    {
      "inputs": [],
      "name": "MINTER_ROLE",
      "outputs": [
        {
          "internalType": "bytes32",
          "name": "",
          "type": "bytes32"
        }
      ],
      "stateMutability": "view",
      "type": "function",
      "constant": true
    },
    {
      "inputs": [
        {
          "internalType": "address",
          "name": "to",
          "type": "address"
        },
        {
          "internalType": "uint256",
          "name": "tokenId",
          "type": "uint256"
        }
      ],
      "name": "approve",
      "outputs": [],
      "stateMutability": "nonpayable",
      "type": "function"
    },
    {
      "inputs": [
        {
          "internalType": "address",
          "name": "owner",
          "type": "address"
        }
      ],
      "name": "balanceOf",
      "outputs": [
        {
          "internalType": "uint256",
          "name": "",
          "type": "uint256"
        }
      ],
      "stateMutability": "view",
      "type": "function",
      "constant": true
    },
    {
      "inputs": [],
      "name": "baseTokenURI",
      "outputs": [
        {
          "internalType": "string",
          "name": "",
          "type": "string"
        }
      ],
      "stateMutability": "view",
      "type": "function",
      "constant": true
    },
    {
      "inputs": [
        {
          "internalType": "uint256",
          "name": "tokenId",
          "type": "uint256"
        }
      ],
      "name": "burn",
      "outputs": [],
      "stateMutability": "nonpayable",
      "type": "function"
    },
    {
      "inputs": [
        {
          "internalType": "uint256",
          "name": "tokenId",
          "type": "uint256"
        }
      ],
      "name": "getApproved",
      "outputs": [
        {
          "internalType": "address",
          "name": "",
          "type": "address"
        }
      ],
      "stateMutability": "view",
      "type": "function",
      "constant": true
    },
    {
      "inputs": [
        {
          "internalType": "bytes32",
          "name": "role",
          "type": "bytes32"
        }
      ],
      "name": "getRoleAdmin",
      "outputs": [
        {
          "internalType": "bytes32",
          "name": "",
          "type": "bytes32"
        }
      ],
      "stateMutability": "view",
      "type": "function",
      "constant": true
    },
    {
      "inputs": [
        {
          "internalType": "bytes32",
          "name": "role",
          "type": "bytes32"
        },
        {
          "internalType": "address",
          "name": "account",
          "type": "address"
        }
      ],
      "name": "grantRole",
      "outputs": [],
      "stateMutability": "nonpayable",
      "type": "function"
    },
    {
      "inputs": [
        {
          "internalType": "bytes32",
          "name": "role",
          "type": "bytes32"
        },
        {
          "internalType": "address",
          "name": "account",
          "type": "address"
        }
      ],
      "name": "hasRole",
      "outputs": [
        {
          "internalType": "bool",
          "name": "",
          "type": "bool"
        }
      ],
      "stateMutability": "view",
      "type": "function",
      "constant": true
    },
    {
      "inputs": [
        {
          "internalType": "address",
          "name": "owner",
          "type": "address"
        },
        {
          "internalType": "address",
          "name": "operator",
          "type": "address"
        }
      ],
      "name": "isApprovedForAll",
      "outputs": [
        {
          "internalType": "bool",
          "name": "",
          "type": "bool"
        }
      ],
      "stateMutability": "view",
      "type": "function",
      "constant": true
    },
    {
      "inputs": [],
      "name": "name",
      "outputs": [
        {
          "internalType": "string",
          "name": "",
          "type": "string"
        }
      ],
      "stateMutability": "view",
      "type": "function",
      "constant": true
    },
    {
      "inputs": [
        {
          "internalType": "uint256",
          "name": "",
          "type": "uint256"
        }
      ],
      "name": "nftList",
      "outputs": [
        {
          "internalType": "string",
          "name": "",
          "type": "string"
        }
      ],
      "stateMutability": "view",
      "type": "function",
      "constant": true
    },
    {
      "inputs": [
        {
          "internalType": "uint256",
          "name": "",
          "type": "uint256"
        }
      ],
      "name": "nftWords",
      "outputs": [
        {
          "internalType": "string",
          "name": "",
          "type": "string"
        }
      ],
      "stateMutability": "view",
      "type": "function",
      "constant": true
    },
    {
      "inputs": [],
      "name": "owner",
      "outputs": [
        {
          "internalType": "address",
          "name": "",
          "type": "address"
        }
      ],
      "stateMutability": "view",
      "type": "function",
      "constant": true
    },
    {
      "inputs": [
        {
          "internalType": "uint256",
          "name": "tokenId",
          "type": "uint256"
        }
      ],
      "name": "ownerOf",
      "outputs": [
        {
          "internalType": "address",
          "name": "",
          "type": "address"
        }
      ],
      "stateMutability": "view",
      "type": "function",
      "constant": true
    },
    {
      "inputs": [],
      "name": "paused",
      "outputs": [
        {
          "internalType": "bool",
          "name": "",
          "type": "bool"
        }
      ],
      "stateMutability": "view",
      "type": "function",
      "constant": true
    },
    {
      "inputs": [],
      "name": "renounceOwnership",
      "outputs": [],
      "stateMutability": "nonpayable",
      "type": "function"
    },
    {
      "inputs": [
        {
          "internalType": "bytes32",
          "name": "role",
          "type": "bytes32"
        },
        {
          "internalType": "address",
          "name": "account",
          "type": "address"
        }
      ],
      "name": "renounceRole",
      "outputs": [],
      "stateMutability": "nonpayable",
      "type": "function"
    },
    {
      "inputs": [
        {
          "internalType": "bytes32",
          "name": "role",
          "type": "bytes32"
        },
        {
          "internalType": "address",
          "name": "account",
          "type": "address"
        }
      ],
      "name": "revokeRole",
      "outputs": [],
      "stateMutability": "nonpayable",
      "type": "function"
    },
    {
      "inputs": [
        {
          "internalType": "address",
          "name": "from",
          "type": "address"
        },
        {
          "internalType": "address",
          "name": "to",
          "type": "address"
        },
        {
          "internalType": "uint256",
          "name": "tokenId",
          "type": "uint256"
        }
      ],
      "name": "safeTransferFrom",
      "outputs": [],
      "stateMutability": "nonpayable",
      "type": "function"
    },
    {
      "inputs": [
        {
          "internalType": "address",
          "name": "from",
          "type": "address"
        },
        {
          "internalType": "address",
          "name": "to",
          "type": "address"
        },
        {
          "internalType": "uint256",
          "name": "tokenId",
          "type": "uint256"
        },
        {
          "internalType": "bytes",
          "name": "_data",
          "type": "bytes"
        }
      ],
      "name": "safeTransferFrom",
      "outputs": [],
      "stateMutability": "nonpayable",
      "type": "function"
    },
    {
      "inputs": [
        {
          "internalType": "address",
          "name": "operator",
          "type": "address"
        },
        {
          "internalType": "bool",
          "name": "approved",
          "type": "bool"
        }
      ],
      "name": "setApprovalForAll",
      "outputs": [],
      "stateMutability": "nonpayable",
      "type": "function"
    },
    {
      "inputs": [],
      "name": "symbol",
      "outputs": [
        {
          "internalType": "string",
          "name": "",
          "type": "string"
        }
      ],
      "stateMutability": "view",
      "type": "function",
      "constant": true
    },
    {
      "inputs": [
        {
          "internalType": "uint256",
          "name": "index",
          "type": "uint256"
        }
      ],
      "name": "tokenByIndex",
      "outputs": [
        {
          "internalType": "uint256",
          "name": "",
          "type": "uint256"
        }
      ],
      "stateMutability": "view",
      "type": "function",
      "constant": true
    },
    {
      "inputs": [
        {
          "internalType": "address",
          "name": "owner",
          "type": "address"
        },
        {
          "internalType": "uint256",
          "name": "index",
          "type": "uint256"
        }
      ],
      "name": "tokenOfOwnerByIndex",
      "outputs": [
        {
          "internalType": "uint256",
          "name": "",
          "type": "uint256"
        }
      ],
      "stateMutability": "view",
      "type": "function",
      "constant": true
    },
    {
      "inputs": [],
      "name": "totalSupply",
      "outputs": [
        {
          "internalType": "uint256",
          "name": "",
          "type": "uint256"
        }
      ],
      "stateMutability": "view",
      "type": "function",
      "constant": true
    },
    {
      "inputs": [
        {
          "internalType": "address",
          "name": "from",
          "type": "address"
        },
        {
          "internalType": "address",
          "name": "to",
          "type": "address"
        },
        {
          "internalType": "uint256",
          "name": "tokenId",
          "type": "uint256"
        }
      ],
      "name": "transferFrom",
      "outputs": [],
      "stateMutability": "nonpayable",
      "type": "function"
    },
    {
      "inputs": [
        {
          "internalType": "address",
          "name": "newOwner",
          "type": "address"
        }
      ],
      "name": "transferOwnership",
      "outputs": [],
      "stateMutability": "nonpayable",
      "type": "function"
    },
    {
      "inputs": [],
      "name": "pause",
      "outputs": [],
      "stateMutability": "nonpayable",
      "type": "function"
    },
    {
      "inputs": [],
      "name": "unpause",
      "outputs": [],
      "stateMutability": "nonpayable",
      "type": "function"
    },
    {
      "inputs": [
        {
          "internalType": "string",
          "name": "baseURI",
          "type": "string"
        }
      ],
      "name": "setBaseURI",
      "outputs": [],
      "stateMutability": "nonpayable",
      "type": "function"
    },
    {
      "inputs": [
        {
          "internalType": "address",
          "name": "minterAddress",
          "type": "address"
        }
      ],
      "name": "grandMinterRole",
      "outputs": [],
      "stateMutability": "nonpayable",
      "type": "function"
    },
    {
      "inputs": [
        {
          "internalType": "address",
          "name": "burnerAddress",
          "type": "address"
        }
      ],
      "name": "grandBurnerRole",
      "outputs": [],
      "stateMutability": "nonpayable",
      "type": "function"
    },
    {
      "inputs": [
        {
          "internalType": "address",
          "name": "minterAddress",
          "type": "address"
        }
      ],
      "name": "revokeMinterAccess",
      "outputs": [],
      "stateMutability": "nonpayable",
      "type": "function"
    },
    {
      "inputs": [
        {
          "internalType": "address",
          "name": "burnerAddress",
          "type": "address"
        }
      ],
      "name": "revokeBurnerAccess",
      "outputs": [],
      "stateMutability": "nonpayable",
      "type": "function"
    },
    {
      "inputs": [
        {
          "internalType": "string",
          "name": "role",
          "type": "string"
        },
        {
          "internalType": "address",
          "name": "account",
          "type": "address"
        }
      ],
      "name": "grandRole",
      "outputs": [],
      "stateMutability": "nonpayable",
      "type": "function"
    },
    {
      "inputs": [
        {
          "internalType": "string",
          "name": "role",
          "type": "string"
        },
        {
          "internalType": "address",
          "name": "account",
          "type": "address"
        }
      ],
      "name": "revokeAccess",
      "outputs": [],
      "stateMutability": "nonpayable",
      "type": "function"
    },
    {
      "inputs": [
        {
          "internalType": "address",
          "name": "_to",
          "type": "address"
        },
        {
          "internalType": "string",
          "name": "_tokenURI",
          "type": "string"
        },
        {
          "internalType": "string",
          "name": "_nftWord",
          "type": "string"
        }
      ],
      "name": "safeMint",
      "outputs": [],
      "stateMutability": "nonpayable",
      "type": "function"
    },
    {
      "inputs": [
        {
          "internalType": "uint256",
          "name": "tokenId",
          "type": "uint256"
        }
      ],
      "name": "burnToken",
      "outputs": [],
      "stateMutability": "nonpayable",
      "type": "function"
    },
    {
      "inputs": [
        {
          "internalType": "uint256",
          "name": "tokenId",
          "type": "uint256"
        }
      ],
      "name": "tokenURI",
      "outputs": [
        {
          "internalType": "string",
          "name": "",
          "type": "string"
        }
      ],
      "stateMutability": "view",
      "type": "function",
      "constant": true
    },
    {
      "inputs": [
        {
          "internalType": "bytes4",
          "name": "interfaceId",
          "type": "bytes4"
        }
      ],
      "name": "supportsInterface",
      "outputs": [
        {
          "internalType": "bool",
          "name": "",
          "type": "bool"
        }
      ],
      "stateMutability": "view",
      "type": "function",
      "constant": true
    }
  ],
  "bytecode": "0x60806040526001600d553480156200001657600080fd5b506040516200633b3803806200633b83398181016040528101906200003c9190620007d7565b828281600090805190602001906200005692919062000525565b5080600190805190602001906200006f92919062000525565b5050506000600b60006101000a81548160ff021916908315150217905550620000ad620000a1620001a460201b60201c565b620001ac60201b60201c565b620000df7f9f2df0fed2c77648de5860a4cc508cd0818c85b8b8a1ab4ceeef8d981c8956a6336200027260201b60201c565b620001117f3c11d16cbaffd01df69ce1c404f6340ee057498f5f00246190ea54220576a848336200027260201b60201c565b62000122816200028860201b60201c565b620001376000801b826200027260201b60201c565b620001697f9f2df0fed2c77648de5860a4cc508cd0818c85b8b8a1ab4ceeef8d981c8956a6826200027260201b60201c565b6200019b7f3c11d16cbaffd01df69ce1c404f6340ee057498f5f00246190ea54220576a848826200027260201b60201c565b505050620009f1565b600033905090565b6000600b60019054906101000a900473ffffffffffffffffffffffffffffffffffffffff16905081600b60016101000a81548173ffffffffffffffffffffffffffffffffffffffff021916908373ffffffffffffffffffffffffffffffffffffffff1602179055508173ffffffffffffffffffffffffffffffffffffffff168173ffffffffffffffffffffffffffffffffffffffff167f8be0079c531659141344cd1fd0a4f28419497f9722a3daafe3b4186f6b6457e060405160405180910390a35050565b6200028482826200039e60201b60201c565b5050565b62000298620001a460201b60201c565b73ffffffffffffffffffffffffffffffffffffffff16620002be6200049060201b60201c565b73ffffffffffffffffffffffffffffffffffffffff161462000317576040517f08c379a00000000000000000000000000000000000000000000000000000000081526004016200030e90620008d2565b60405180910390fd5b600073ffffffffffffffffffffffffffffffffffffffff168173ffffffffffffffffffffffffffffffffffffffff1614156200038a576040517f08c379a000000000000000000000000000000000000000000000000000000000815260040162000381906200096a565b60405180910390fd5b6200039b81620001ac60201b60201c565b50565b620003b08282620004ba60201b60201c565b6200048c576001600c600084815260200190815260200160002060000160008373ffffffffffffffffffffffffffffffffffffffff1673ffffffffffffffffffffffffffffffffffffffff16815260200190815260200160002060006101000a81548160ff02191690831515021790555062000431620001a460201b60201c565b73ffffffffffffffffffffffffffffffffffffffff168173ffffffffffffffffffffffffffffffffffffffff16837f2f8788117e7eff1d82e926ec794901d17c78024a50270940304540a733656f0d60405160405180910390a45b5050565b6000600b60019054906101000a900473ffffffffffffffffffffffffffffffffffffffff16905090565b6000600c600084815260200190815260200160002060000160008373ffffffffffffffffffffffffffffffffffffffff1673ffffffffffffffffffffffffffffffffffffffff16815260200190815260200160002060009054906101000a900460ff16905092915050565b8280546200053390620009bb565b90600052602060002090601f016020900481019282620005575760008555620005a3565b82601f106200057257805160ff1916838001178555620005a3565b82800160010185558215620005a3579182015b82811115620005a257825182559160200191906001019062000585565b5b509050620005b29190620005b6565b5090565b5b80821115620005d1576000816000905550600101620005b7565b5090565b6000604051905090565b600080fd5b600080fd5b600080fd5b600080fd5b6000601f19601f8301169050919050565b7f4e487b7100000000000000000000000000000000000000000000000000000000600052604160045260246000fd5b6200063e82620005f3565b810181811067ffffffffffffffff8211171562000660576200065f62000604565b5b80604052505050565b600062000675620005d5565b905062000683828262000633565b919050565b600067ffffffffffffffff821115620006a657620006a562000604565b5b620006b182620005f3565b9050602081019050919050565b60005b83811015620006de578082015181840152602081019050620006c1565b83811115620006ee576000848401525b50505050565b60006200070b620007058462000688565b62000669565b9050828152602081018484840111156200072a5762000729620005ee565b5b62000737848285620006be565b509392505050565b600082601f830112620007575762000756620005e9565b5b815162000769848260208601620006f4565b91505092915050565b600073ffffffffffffffffffffffffffffffffffffffff82169050919050565b60006200079f8262000772565b9050919050565b620007b18162000792565b8114620007bd57600080fd5b50565b600081519050620007d181620007a6565b92915050565b600080600060608486031215620007f357620007f2620005df565b5b600084015167ffffffffffffffff811115620008145762000813620005e4565b5b62000822868287016200073f565b935050602084015167ffffffffffffffff811115620008465762000845620005e4565b5b62000854868287016200073f565b92505060406200086786828701620007c0565b9150509250925092565b600082825260208201905092915050565b7f4f776e61626c653a2063616c6c6572206973206e6f7420746865206f776e6572600082015250565b6000620008ba60208362000871565b9150620008c78262000882565b602082019050919050565b60006020820190508181036000830152620008ed81620008ab565b9050919050565b7f4f776e61626c653a206e6577206f776e657220697320746865207a65726f206160008201527f6464726573730000000000000000000000000000000000000000000000000000602082015250565b60006200095260268362000871565b91506200095f82620008f4565b604082019050919050565b60006020820190508181036000830152620009858162000943565b9050919050565b7f4e487b7100000000000000000000000000000000000000000000000000000000600052602260045260246000fd5b60006002820490506001821680620009d457607f821691505b60208210811415620009eb57620009ea6200098c565b5b50919050565b61593a8062000a016000396000f3fe608060405234801561001057600080fd5b50600436106102745760003560e01c8063715018a611610151578063b8142b58116100c3578063d547cfb711610087578063d547cfb714610759578063dfe0b5fe14610777578063e985e9c514610793578063eca81d42146107c3578063f2898530146107df578063f2fde38b146107fb57610274565b8063b8142b58146106a3578063b88d4fde146106d3578063c87b56dd146106ef578063d53913931461071f578063d547741f1461073d57610274565b806391d148541161011557806391d14854146105e357806395d89b41146106135780639b14bf5014610631578063a0049b611461064d578063a217fddf14610669578063a22cb4651461068757610274565b8063715018a61461056557806375bea1661461056f5780637b47ec1a1461059f5780638456cb59146105bb5780638da5cb5b146105c557610274565b806336568abe116101ea57806354788dfa116101ae57806354788dfa1461049357806355f804b3146104af5780635c975abb146104cb5780636352211e146104e9578063704df76a1461051957806370a082311461053557610274565b806336568abe146104055780633f4ba83a1461042157806342842e0e1461042b57806342966c68146104475780634f6ccce71461046357610274565b806323b872dd1161023c57806323b872dd14610331578063248a9ca31461034d578063282c51f31461037d5780632f2ff15d1461039b5780632f745c59146103b757806332cb6b0c146103e757610274565b806301ffc9a71461027957806306fdde03146102a9578063081812fc146102c7578063095ea7b3146102f757806318160ddd14610313575b600080fd5b610293600480360381019061028e9190613d45565b610817565b6040516102a09190613d8d565b60405180910390f35b6102b1610829565b6040516102be9190613e41565b60405180910390f35b6102e160048036038101906102dc9190613e99565b6108bb565b6040516102ee9190613f07565b60405180910390f35b610311600480360381019061030c9190613f4e565b610940565b005b61031b610a58565b6040516103289190613f9d565b60405180910390f35b61034b60048036038101906103469190613fb8565b610a65565b005b61036760048036038101906103629190614041565b610ac5565b604051610374919061407d565b60405180910390f35b610385610ae5565b604051610392919061407d565b60405180910390f35b6103b560048036038101906103b09190614098565b610b09565b005b6103d160048036038101906103cc9190613f4e565b610b32565b6040516103de9190613f9d565b60405180910390f35b6103ef610bd7565b6040516103fc9190613f9d565b60405180910390f35b61041f600480360381019061041a9190614098565b610bdd565b005b610429610c60565b005b61044560048036038101906104409190613fb8565b610ce6565b005b610461600480360381019061045c9190613e99565b610d06565b005b61047d60048036038101906104789190613e99565b610d62565b60405161048a9190613f9d565b60405180910390f35b6104ad60048036038101906104a891906140d8565b610dd3565b005b6104c960048036038101906104c4919061423a565b610e7c565b005b6104d3610f12565b6040516104e09190613d8d565b60405180910390f35b61050360048036038101906104fe9190613e99565b610f29565b6040516105109190613f07565b60405180910390f35b610533600480360381019061052e91906140d8565b610fdb565b005b61054f600480360381019061054a91906140d8565b6110ed565b60405161055c9190613f9d565b60405180910390f35b61056d6111a5565b005b61058960048036038101906105849190613e99565b61122d565b6040516105969190613e41565b60405180910390f35b6105b960048036038101906105b49190613e99565b6112d9565b005b6105c3611361565b005b6105cd6113e7565b6040516105da9190613f07565b60405180910390f35b6105fd60048036038101906105f89190614098565b611411565b60405161060a9190613d8d565b60405180910390f35b61061b61147c565b6040516106289190613e41565b60405180910390f35b61064b60048036038101906106469190614283565b61150e565b005b610667600480360381019061066291906140d8565b6115c4565b005b6106716116d6565b60405161067e919061407d565b60405180910390f35b6106a1600480360381019061069c919061430b565b6116dd565b005b6106bd60048036038101906106b89190613e99565b61185e565b6040516106ca9190613e41565b60405180910390f35b6106ed60048036038101906106e891906143ec565b61190a565b005b61070960048036038101906107049190613e99565b61196c565b6040516107169190613e41565b60405180910390f35b61072761197e565b604051610734919061407d565b60405180910390f35b61075760048036038101906107529190614098565b6119a2565b005b6107616119cb565b60405161076e9190613e41565b60405180910390f35b610791600480360381019061078c9190614283565b611a59565b005b6107ad60048036038101906107a8919061446f565b611b9e565b6040516107ba9190613d8d565b60405180910390f35b6107dd60048036038101906107d891906144af565b611c32565b005b6107f960048036038101906107f491906140d8565b611df8565b005b610815600480360381019061081091906140d8565b611ea1565b005b600061082282611f99565b9050919050565b60606000805461083890614569565b80601f016020809104026020016040519081016040528092919081815260200182805461086490614569565b80156108b15780601f10610886576101008083540402835291602001916108b1565b820191906000526020600020905b81548152906001019060200180831161089457829003601f168201915b5050505050905090565b60006108c682612013565b610905576040517f08c379a00000000000000000000000000000000000000000000000000000000081526004016108fc9061460d565b60405180910390fd5b6004600083815260200190815260200160002060009054906101000a900473ffffffffffffffffffffffffffffffffffffffff169050919050565b600061094b82610f29565b90508073ffffffffffffffffffffffffffffffffffffffff168373ffffffffffffffffffffffffffffffffffffffff1614156109bc576040517f08c379a00000000000000000000000000000000000000000000000000000000081526004016109b39061469f565b60405180910390fd5b8073ffffffffffffffffffffffffffffffffffffffff166109db61207f565b73ffffffffffffffffffffffffffffffffffffffff161480610a0a5750610a0981610a0461207f565b611b9e565b5b610a49576040517f08c379a0000000000000000000000000000000000000000000000000000000008152600401610a4090614731565b60405180910390fd5b610a538383612087565b505050565b6000600880549050905090565b610a76610a7061207f565b82612140565b610ab5576040517f08c379a0000000000000000000000000000000000000000000000000000000008152600401610aac906147c3565b60405180910390fd5b610ac083838361221e565b505050565b6000600c6000838152602001908152602001600020600101549050919050565b7f3c11d16cbaffd01df69ce1c404f6340ee057498f5f00246190ea54220576a84881565b610b1282610ac5565b610b2381610b1e61207f565b61247a565b610b2d8383612517565b505050565b6000610b3d836110ed565b8210610b7e576040517f08c379a0000000000000000000000000000000000000000000000000000000008152600401610b7590614855565b60405180910390fd5b600660008473ffffffffffffffffffffffffffffffffffffffff1673ffffffffffffffffffffffffffffffffffffffff168152602001908152602001600020600083815260200190815260200160002054905092915050565b610fa081565b610be561207f565b73ffffffffffffffffffffffffffffffffffffffff168173ffffffffffffffffffffffffffffffffffffffff1614610c52576040517f08c379a0000000000000000000000000000000000000000000000000000000008152600401610c49906148e7565b60405180910390fd5b610c5c82826125f8565b5050565b610c6861207f565b73ffffffffffffffffffffffffffffffffffffffff16610c866113e7565b73ffffffffffffffffffffffffffffffffffffffff1614610cdc576040517f08c379a0000000000000000000000000000000000000000000000000000000008152600401610cd390614953565b60405180910390fd5b610ce46126da565b565b610d018383836040518060200160405280600081525061190a565b505050565b610d17610d1161207f565b82612140565b610d56576040517f08c379a0000000000000000000000000000000000000000000000000000000008152600401610d4d906149e5565b60405180910390fd5b610d5f8161277c565b50565b6000610d6c610a58565b8210610dad576040517f08c379a0000000000000000000000000000000000000000000000000000000008152600401610da490614a77565b60405180910390fd5b60088281548110610dc157610dc0614a97565b5b90600052602060002001549050919050565b610ddb61207f565b73ffffffffffffffffffffffffffffffffffffffff16610df96113e7565b73ffffffffffffffffffffffffffffffffffffffff1614610e4f576040517f08c379a0000000000000000000000000000000000000000000000000000000008152600401610e4690614953565b60405180910390fd5b610e797f3c11d16cbaffd01df69ce1c404f6340ee057498f5f00246190ea54220576a84882612804565b50565b610e8461207f565b73ffffffffffffffffffffffffffffffffffffffff16610ea26113e7565b73ffffffffffffffffffffffffffffffffffffffff1614610ef8576040517f08c379a0000000000000000000000000000000000000000000000000000000008152600401610eef90614953565b60405180910390fd5b8060119080519060200190610f0e929190613bf6565b5050565b6000600b60009054906101000a900460ff16905090565b6000806002600084815260200190815260200160002060009054906101000a900473ffffffffffffffffffffffffffffffffffffffff169050600073ffffffffffffffffffffffffffffffffffffffff168173ffffffffffffffffffffffffffffffffffffffff161415610fd2576040517f08c379a0000000000000000000000000000000000000000000000000000000008152600401610fc990614b38565b60405180910390fd5b80915050919050565b610fe361207f565b73ffffffffffffffffffffffffffffffffffffffff166110016113e7565b73ffffffffffffffffffffffffffffffffffffffff1614611057576040517f08c379a000000000000000000000000000000000000000000000000000000000815260040161104e90614953565b60405180910390fd5b6110817f9f2df0fed2c77648de5860a4cc508cd0818c85b8b8a1ab4ceeef8d981c8956a682611411565b6110c0576040517f08c379a00000000000000000000000000000000000000000000000000000000081526004016110b790614bca565b60405180910390fd5b6110ea7f9f2df0fed2c77648de5860a4cc508cd0818c85b8b8a1ab4ceeef8d981c8956a6826119a2565b50565b60008073ffffffffffffffffffffffffffffffffffffffff168273ffffffffffffffffffffffffffffffffffffffff16141561115e576040517f08c379a000000000000000000000000000000000000000000000000000000000815260040161115590614c5c565b60405180910390fd5b600360008373ffffffffffffffffffffffffffffffffffffffff1673ffffffffffffffffffffffffffffffffffffffff168152602001908152602001600020549050919050565b6111ad61207f565b73ffffffffffffffffffffffffffffffffffffffff166111cb6113e7565b73ffffffffffffffffffffffffffffffffffffffff1614611221576040517f08c379a000000000000000000000000000000000000000000000000000000000815260040161121890614953565b60405180910390fd5b61122b6000612812565b565b600e818154811061123d57600080fd5b90600052602060002001600091509050805461125890614569565b80601f016020809104026020016040519081016040528092919081815260200182805461128490614569565b80156112d15780601f106112a6576101008083540402835291602001916112d1565b820191906000526020600020905b8154815290600101906020018083116112b457829003601f168201915b505050505081565b6112e161207f565b73ffffffffffffffffffffffffffffffffffffffff166112ff6113e7565b73ffffffffffffffffffffffffffffffffffffffff1614611355576040517f08c379a000000000000000000000000000000000000000000000000000000000815260040161134c90614953565b60405180910390fd5b61135e8161277c565b50565b61136961207f565b73ffffffffffffffffffffffffffffffffffffffff166113876113e7565b73ffffffffffffffffffffffffffffffffffffffff16146113dd576040517f08c379a00000000000000000000000000000000000000000000000000000000081526004016113d490614953565b60405180910390fd5b6113e56128d8565b565b6000600b60019054906101000a900473ffffffffffffffffffffffffffffffffffffffff16905090565b6000600c600084815260200190815260200160002060000160008373ffffffffffffffffffffffffffffffffffffffff1673ffffffffffffffffffffffffffffffffffffffff16815260200190815260200160002060009054906101000a900460ff16905092915050565b60606001805461148b90614569565b80601f01602080910402602001604051908101604052809291908181526020018280546114b790614569565b80156115045780601f106114d957610100808354040283529160200191611504565b820191906000526020600020905b8154815290600101906020018083116114e757829003601f168201915b5050505050905090565b61151661207f565b73ffffffffffffffffffffffffffffffffffffffff166115346113e7565b73ffffffffffffffffffffffffffffffffffffffff161461158a576040517f08c379a000000000000000000000000000000000000000000000000000000000815260040161158190614953565b60405180910390fd5b60008260405160200161159d9190614cb8565b6040516020818303038152906040528051906020012090506115bf8183612804565b505050565b6115cc61207f565b73ffffffffffffffffffffffffffffffffffffffff166115ea6113e7565b73ffffffffffffffffffffffffffffffffffffffff1614611640576040517f08c379a000000000000000000000000000000000000000000000000000000000815260040161163790614953565b60405180910390fd5b61166a7f3c11d16cbaffd01df69ce1c404f6340ee057498f5f00246190ea54220576a84882611411565b6116a9576040517f08c379a00000000000000000000000000000000000000000000000000000000081526004016116a090614bca565b60405180910390fd5b6116d37f3c11d16cbaffd01df69ce1c404f6340ee057498f5f00246190ea54220576a848826119a2565b50565b6000801b81565b6116e561207f565b73ffffffffffffffffffffffffffffffffffffffff168273ffffffffffffffffffffffffffffffffffffffff161415611753576040517f08c379a000000000000000000000000000000000000000000000000000000000815260040161174a90614d1b565b60405180910390fd5b806005600061176061207f565b73ffffffffffffffffffffffffffffffffffffffff1673ffffffffffffffffffffffffffffffffffffffff16815260200190815260200160002060008473ffffffffffffffffffffffffffffffffffffffff1673ffffffffffffffffffffffffffffffffffffffff16815260200190815260200160002060006101000a81548160ff0219169083151502179055508173ffffffffffffffffffffffffffffffffffffffff1661180d61207f565b73ffffffffffffffffffffffffffffffffffffffff167f17307eab39ab6107e8899845ad3d59bd9653f200f220920489ca2b5937696c31836040516118529190613d8d565b60405180910390a35050565b6010818154811061186e57600080fd5b90600052602060002001600091509050805461188990614569565b80601f01602080910402602001604051908101604052809291908181526020018280546118b590614569565b80156119025780601f106118d757610100808354040283529160200191611902565b820191906000526020600020905b8154815290600101906020018083116118e557829003601f168201915b505050505081565b61191b61191561207f565b83612140565b61195a576040517f08c379a0000000000000000000000000000000000000000000000000000000008152600401611951906147c3565b60405180910390fd5b6119668484848461297b565b50505050565b6060611977826129d7565b9050919050565b7f9f2df0fed2c77648de5860a4cc508cd0818c85b8b8a1ab4ceeef8d981c8956a681565b6119ab82610ac5565b6119bc816119b761207f565b61247a565b6119c683836125f8565b505050565b601180546119d890614569565b80601f0160208091040260200160405190810160405280929190818152602001828054611a0490614569565b8015611a515780601f10611a2657610100808354040283529160200191611a51565b820191906000526020600020905b815481529060010190602001808311611a3457829003601f168201915b505050505081565b611a6161207f565b73ffffffffffffffffffffffffffffffffffffffff16611a7f6113e7565b73ffffffffffffffffffffffffffffffffffffffff1614611ad5576040517f08c379a0000000000000000000000000000000000000000000000000000000008152600401611acc90614953565b60405180910390fd5b600082604051602001611ae89190614cb8565b6040516020818303038152906040528051906020012090506000801b811415611b46576040517f08c379a0000000000000000000000000000000000000000000000000000000008152600401611b3d90614dad565b60405180910390fd5b611b508183611411565b611b8f576040517f08c379a0000000000000000000000000000000000000000000000000000000008152600401611b8690614bca565b60405180910390fd5b611b9981836119a2565b505050565b6000600560008473ffffffffffffffffffffffffffffffffffffffff1673ffffffffffffffffffffffffffffffffffffffff16815260200190815260200160002060008373ffffffffffffffffffffffffffffffffffffffff1673ffffffffffffffffffffffffffffffffffffffff16815260200190815260200160002060009054906101000a900460ff16905092915050565b7f9f2df0fed2c77648de5860a4cc508cd0818c85b8b8a1ab4ceeef8d981c8956a6611c6481611c5f61207f565b61247a565b610fa0611c6f610a58565b10611caf576040517f08c379a0000000000000000000000000000000000000000000000000000000008152600401611ca690614e19565b60405180910390fd5b600f83604051611cbf9190614cb8565b908152602001604051809103902060009054906101000a900460ff1615611ce557600080fd5b600e83908060018154018082558091505060019003906000526020600020016000909190919091509080519060200190611d20929190613bf6565b506000600d549050611d328582612b29565b6001600d54611d419190614e68565b600d819055506001600f85604051611d599190614cb8565b908152602001604051809103902060006101000a81548160ff021916908315150217905550611d888185612b47565b601083908060018154018082558091505060019003906000526020600020016000909190919091509080519060200190611dc3929190613bf6565b50807f1dc591759428e08ccba3a40f0652fc89bc0960f05a060e630fe68a33a26545ea60405160405180910390a25050505050565b611e0061207f565b73ffffffffffffffffffffffffffffffffffffffff16611e1e6113e7565b73ffffffffffffffffffffffffffffffffffffffff1614611e74576040517f08c379a0000000000000000000000000000000000000000000000000000000008152600401611e6b90614953565b60405180910390fd5b611e9e7f9f2df0fed2c77648de5860a4cc508cd0818c85b8b8a1ab4ceeef8d981c8956a682612804565b50565b611ea961207f565b73ffffffffffffffffffffffffffffffffffffffff16611ec76113e7565b73ffffffffffffffffffffffffffffffffffffffff1614611f1d576040517f08c379a0000000000000000000000000000000000000000000000000000000008152600401611f1490614953565b60405180910390fd5b600073ffffffffffffffffffffffffffffffffffffffff168173ffffffffffffffffffffffffffffffffffffffff161415611f8d576040517f08c379a0000000000000000000000000000000000000000000000000000000008152600401611f8490614f30565b60405180910390fd5b611f9681612812565b50565b60007f7965db0b000000000000000000000000000000000000000000000000000000007bffffffffffffffffffffffffffffffffffffffffffffffffffffffff1916827bffffffffffffffffffffffffffffffffffffffffffffffffffffffff1916148061200c575061200b82612bbb565b5b9050919050565b60008073ffffffffffffffffffffffffffffffffffffffff166002600084815260200190815260200160002060009054906101000a900473ffffffffffffffffffffffffffffffffffffffff1673ffffffffffffffffffffffffffffffffffffffff1614159050919050565b600033905090565b816004600083815260200190815260200160002060006101000a81548173ffffffffffffffffffffffffffffffffffffffff021916908373ffffffffffffffffffffffffffffffffffffffff160217905550808273ffffffffffffffffffffffffffffffffffffffff166120fa83610f29565b73ffffffffffffffffffffffffffffffffffffffff167f8c5be1e5ebec7d5bd14f71427d1e84f3dd0314c0f7b2291e5b200ac8c7c3b92560405160405180910390a45050565b600061214b82612013565b61218a576040517f08c379a000000000000000000000000000000000000000000000000000000000815260040161218190614fc2565b60405180910390fd5b600061219583610f29565b90508073ffffffffffffffffffffffffffffffffffffffff168473ffffffffffffffffffffffffffffffffffffffff16148061220457508373ffffffffffffffffffffffffffffffffffffffff166121ec846108bb565b73ffffffffffffffffffffffffffffffffffffffff16145b8061221557506122148185611b9e565b5b91505092915050565b8273ffffffffffffffffffffffffffffffffffffffff1661223e82610f29565b73ffffffffffffffffffffffffffffffffffffffff1614612294576040517f08c379a000000000000000000000000000000000000000000000000000000000815260040161228b90615054565b60405180910390fd5b600073ffffffffffffffffffffffffffffffffffffffff168273ffffffffffffffffffffffffffffffffffffffff161415612304576040517f08c379a00000000000000000000000000000000000000000000000000000000081526004016122fb906150e6565b60405180910390fd5b61230f838383612c35565b61231a600082612087565b6001600360008573ffffffffffffffffffffffffffffffffffffffff1673ffffffffffffffffffffffffffffffffffffffff168152602001908152602001600020600082825461236a9190615106565b925050819055506001600360008473ffffffffffffffffffffffffffffffffffffffff1673ffffffffffffffffffffffffffffffffffffffff16815260200190815260200160002060008282546123c19190614e68565b92505081905550816002600083815260200190815260200160002060006101000a81548173ffffffffffffffffffffffffffffffffffffffff021916908373ffffffffffffffffffffffffffffffffffffffff160217905550808273ffffffffffffffffffffffffffffffffffffffff168473ffffffffffffffffffffffffffffffffffffffff167fddf252ad1be2c89b69c2b068fc378daa952ba7f163c4a11628f55a4df523b3ef60405160405180910390a4505050565b6124848282611411565b612513576124a98173ffffffffffffffffffffffffffffffffffffffff166014612c8d565b6124b78360001c6020612c8d565b6040516020016124c89291906151d2565b6040516020818303038152906040526040517f08c379a000000000000000000000000000000000000000000000000000000000815260040161250a9190613e41565b60405180910390fd5b5050565b6125218282611411565b6125f4576001600c600084815260200190815260200160002060000160008373ffffffffffffffffffffffffffffffffffffffff1673ffffffffffffffffffffffffffffffffffffffff16815260200190815260200160002060006101000a81548160ff02191690831515021790555061259961207f565b73ffffffffffffffffffffffffffffffffffffffff168173ffffffffffffffffffffffffffffffffffffffff16837f2f8788117e7eff1d82e926ec794901d17c78024a50270940304540a733656f0d60405160405180910390a45b5050565b6126028282611411565b156126d6576000600c600084815260200190815260200160002060000160008373ffffffffffffffffffffffffffffffffffffffff1673ffffffffffffffffffffffffffffffffffffffff16815260200190815260200160002060006101000a81548160ff02191690831515021790555061267b61207f565b73ffffffffffffffffffffffffffffffffffffffff168173ffffffffffffffffffffffffffffffffffffffff16837ff6391f5c32d9c69d2a47ea670b442974b53935d1edc7fd64eb21e047a839171b60405160405180910390a45b5050565b6126e2610f12565b612721576040517f08c379a000000000000000000000000000000000000000000000000000000000815260040161271890615258565b60405180910390fd5b6000600b60006101000a81548160ff0219169083151502179055507f5db9ee0a495bf2e6ff9c91a7834c1ba4fdd244a5e8aa4e537bd38aeae4b073aa61276561207f565b6040516127729190613f07565b60405180910390a1565b61278461207f565b73ffffffffffffffffffffffffffffffffffffffff166127a26113e7565b73ffffffffffffffffffffffffffffffffffffffff16146127f8576040517f08c379a00000000000000000000000000000000000000000000000000000000081526004016127ef90614953565b60405180910390fd5b61280181612ec9565b50565b61280e8282612517565b5050565b6000600b60019054906101000a900473ffffffffffffffffffffffffffffffffffffffff16905081600b60016101000a81548173ffffffffffffffffffffffffffffffffffffffff021916908373ffffffffffffffffffffffffffffffffffffffff1602179055508173ffffffffffffffffffffffffffffffffffffffff168173ffffffffffffffffffffffffffffffffffffffff167f8be0079c531659141344cd1fd0a4f28419497f9722a3daafe3b4186f6b6457e060405160405180910390a35050565b6128e0610f12565b15612920576040517f08c379a0000000000000000000000000000000000000000000000000000000008152600401612917906152c4565b60405180910390fd5b6001600b60006101000a81548160ff0219169083151502179055507f62e78cea01bee320cd4e420270b5ea74000d11b0c9f74754ebdbfc544b05a25861296461207f565b6040516129719190613f07565b60405180910390a1565b61298684848461221e565b61299284848484612f1c565b6129d1576040517f08c379a00000000000000000000000000000000000000000000000000000000081526004016129c890615356565b60405180910390fd5b50505050565b60606129e282612013565b612a21576040517f08c379a0000000000000000000000000000000000000000000000000000000008152600401612a18906153e8565b60405180910390fd5b6000600a60008481526020019081526020016000208054612a4190614569565b80601f0160208091040260200160405190810160405280929190818152602001828054612a6d90614569565b8015612aba5780601f10612a8f57610100808354040283529160200191612aba565b820191906000526020600020905b815481529060010190602001808311612a9d57829003601f168201915b505050505090506000612acb6130a4565b9050600081511415612ae1578192505050612b24565b600082511115612b16578082604051602001612afe929190615408565b60405160208183030381529060405292505050612b24565b612b1f84613136565b925050505b919050565b612b438282604051806020016040528060008152506131dd565b5050565b612b5082612013565b612b8f576040517f08c379a0000000000000000000000000000000000000000000000000000000008152600401612b869061549e565b60405180910390fd5b80600a60008481526020019081526020016000209080519060200190612bb6929190613bf6565b505050565b60007f780e9d63000000000000000000000000000000000000000000000000000000007bffffffffffffffffffffffffffffffffffffffffffffffffffffffff1916827bffffffffffffffffffffffffffffffffffffffffffffffffffffffff19161480612c2e5750612c2d82613238565b5b9050919050565b612c3d610f12565b15612c7d576040517f08c379a0000000000000000000000000000000000000000000000000000000008152600401612c74906152c4565b60405180910390fd5b612c8883838361331a565b505050565b606060006002836002612ca091906154be565b612caa9190614e68565b67ffffffffffffffff811115612cc357612cc261410f565b5b6040519080825280601f01601f191660200182016040528015612cf55781602001600182028036833780820191505090505b5090507f300000000000000000000000000000000000000000000000000000000000000081600081518110612d2d57612d2c614a97565b5b60200101907effffffffffffffffffffffffffffffffffffffffffffffffffffffffffffff1916908160001a9053507f780000000000000000000000000000000000000000000000000000000000000081600181518110612d9157612d90614a97565b5b60200101907effffffffffffffffffffffffffffffffffffffffffffffffffffffffffffff1916908160001a90535060006001846002612dd191906154be565b612ddb9190614e68565b90505b6001811115612e7b577f3031323334353637383961626364656600000000000000000000000000000000600f861660108110612e1d57612e1c614a97565b5b1a60f81b828281518110612e3457612e33614a97565b5b60200101907effffffffffffffffffffffffffffffffffffffffffffffffffffffffffffff1916908160001a905350600485901c945080612e7490615518565b9050612dde565b5060008414612ebf576040517f08c379a0000000000000000000000000000000000000000000000000000000008152600401612eb69061558e565b60405180910390fd5b8091505092915050565b612ed28161342e565b6000600a60008381526020019081526020016000208054612ef290614569565b905014612f1957600a60008281526020019081526020016000206000612f189190613c7c565b5b50565b6000612f3d8473ffffffffffffffffffffffffffffffffffffffff1661353f565b15613097578373ffffffffffffffffffffffffffffffffffffffff1663150b7a02612f6661207f565b8786866040518563ffffffff1660e01b8152600401612f889493929190615603565b6020604051808303816000875af1925050508015612fc457506040513d601f19601f82011682018060405250810190612fc19190615664565b60015b613047573d8060008114612ff4576040519150601f19603f3d011682016040523d82523d6000602084013e612ff9565b606091505b5060008151141561303f576040517f08c379a000000000000000000000000000000000000000000000000000000000815260040161303690615356565b60405180910390fd5b805181602001fd5b63150b7a0260e01b7bffffffffffffffffffffffffffffffffffffffffffffffffffffffff1916817bffffffffffffffffffffffffffffffffffffffffffffffffffffffff19161491505061309c565b600190505b949350505050565b6060601180546130b390614569565b80601f01602080910402602001604051908101604052809291908181526020018280546130df90614569565b801561312c5780601f106131015761010080835404028352916020019161312c565b820191906000526020600020905b81548152906001019060200180831161310f57829003601f168201915b5050505050905090565b606061314182612013565b613180576040517f08c379a000000000000000000000000000000000000000000000000000000000815260040161317790615703565b60405180910390fd5b600061318a6130a4565b905060008151116131aa57604051806020016040528060008152506131d5565b806131b484613552565b6040516020016131c5929190615408565b6040516020818303038152906040525b915050919050565b6131e783836136b3565b6131f46000848484612f1c565b613233576040517f08c379a000000000000000000000000000000000000000000000000000000000815260040161322a90615356565b60405180910390fd5b505050565b60007f80ac58cd000000000000000000000000000000000000000000000000000000007bffffffffffffffffffffffffffffffffffffffffffffffffffffffff1916827bffffffffffffffffffffffffffffffffffffffffffffffffffffffff1916148061330357507f5b5e139f000000000000000000000000000000000000000000000000000000007bffffffffffffffffffffffffffffffffffffffffffffffffffffffff1916827bffffffffffffffffffffffffffffffffffffffffffffffffffffffff1916145b80613313575061331282613881565b5b9050919050565b6133258383836138eb565b600073ffffffffffffffffffffffffffffffffffffffff168373ffffffffffffffffffffffffffffffffffffffff16141561336857613363816138f0565b6133a7565b8173ffffffffffffffffffffffffffffffffffffffff168373ffffffffffffffffffffffffffffffffffffffff16146133a6576133a58382613939565b5b5b600073ffffffffffffffffffffffffffffffffffffffff168273ffffffffffffffffffffffffffffffffffffffff1614156133ea576133e581613aa6565b613429565b8273ffffffffffffffffffffffffffffffffffffffff168273ffffffffffffffffffffffffffffffffffffffff1614613428576134278282613b77565b5b5b505050565b600061343982610f29565b905061344781600084612c35565b613452600083612087565b6001600360008373ffffffffffffffffffffffffffffffffffffffff1673ffffffffffffffffffffffffffffffffffffffff16815260200190815260200160002060008282546134a29190615106565b925050819055506002600083815260200190815260200160002060006101000a81549073ffffffffffffffffffffffffffffffffffffffff021916905581600073ffffffffffffffffffffffffffffffffffffffff168273ffffffffffffffffffffffffffffffffffffffff167fddf252ad1be2c89b69c2b068fc378daa952ba7f163c4a11628f55a4df523b3ef60405160405180910390a45050565b600080823b905060008111915050919050565b6060600082141561359a576040518060400160405280600181526020017f300000000000000000000000000000000000000000000000000000000000000081525090506136ae565b600082905060005b600082146135cc5780806135b590615723565b915050600a826135c5919061579b565b91506135a2565b60008167ffffffffffffffff8111156135e8576135e761410f565b5b6040519080825280601f01601f19166020018201604052801561361a5781602001600182028036833780820191505090505b5090505b600085146136a7576001826136339190615106565b9150600a8561364291906157cc565b603061364e9190614e68565b60f81b81838151811061366457613663614a97565b5b60200101907effffffffffffffffffffffffffffffffffffffffffffffffffffffffffffff1916908160001a905350600a856136a0919061579b565b945061361e565b8093505050505b919050565b600073ffffffffffffffffffffffffffffffffffffffff168273ffffffffffffffffffffffffffffffffffffffff161415613723576040517f08c379a000000000000000000000000000000000000000000000000000000000815260040161371a90615849565b60405180910390fd5b61372c81612013565b1561376c576040517f08c379a0000000000000000000000000000000000000000000000000000000008152600401613763906158b5565b60405180910390fd5b61377860008383612c35565b6001600360008473ffffffffffffffffffffffffffffffffffffffff1673ffffffffffffffffffffffffffffffffffffffff16815260200190815260200160002060008282546137c89190614e68565b92505081905550816002600083815260200190815260200160002060006101000a81548173ffffffffffffffffffffffffffffffffffffffff021916908373ffffffffffffffffffffffffffffffffffffffff160217905550808273ffffffffffffffffffffffffffffffffffffffff16600073ffffffffffffffffffffffffffffffffffffffff167fddf252ad1be2c89b69c2b068fc378daa952ba7f163c4a11628f55a4df523b3ef60405160405180910390a45050565b60007f01ffc9a7000000000000000000000000000000000000000000000000000000007bffffffffffffffffffffffffffffffffffffffffffffffffffffffff1916827bffffffffffffffffffffffffffffffffffffffffffffffffffffffff1916149050919050565b505050565b6008805490506009600083815260200190815260200160002081905550600881908060018154018082558091505060019003906000526020600020016000909190919091505550565b60006001613946846110ed565b6139509190615106565b9050600060076000848152602001908152602001600020549050818114613a35576000600660008673ffffffffffffffffffffffffffffffffffffffff1673ffffffffffffffffffffffffffffffffffffffff168152602001908152602001600020600084815260200190815260200160002054905080600660008773ffffffffffffffffffffffffffffffffffffffff1673ffffffffffffffffffffffffffffffffffffffff168152602001908152602001600020600084815260200190815260200160002081905550816007600083815260200190815260200160002081905550505b6007600084815260200190815260200160002060009055600660008573ffffffffffffffffffffffffffffffffffffffff1673ffffffffffffffffffffffffffffffffffffffff16815260200190815260200160002060008381526020019081526020016000206000905550505050565b60006001600880549050613aba9190615106565b9050600060096000848152602001908152602001600020549050600060088381548110613aea57613ae9614a97565b5b906000526020600020015490508060088381548110613b0c57613b0b614a97565b5b906000526020600020018190555081600960008381526020019081526020016000208190555060096000858152602001908152602001600020600090556008805480613b5b57613b5a6158d5565b5b6001900381819060005260206000200160009055905550505050565b6000613b82836110ed565b905081600660008573ffffffffffffffffffffffffffffffffffffffff1673ffffffffffffffffffffffffffffffffffffffff168152602001908152602001600020600083815260200190815260200160002081905550806007600084815260200190815260200160002081905550505050565b828054613c0290614569565b90600052602060002090601f016020900481019282613c245760008555613c6b565b82601f10613c3d57805160ff1916838001178555613c6b565b82800160010185558215613c6b579182015b82811115613c6a578251825591602001919060010190613c4f565b5b509050613c789190613cbc565b5090565b508054613c8890614569565b6000825580601f10613c9a5750613cb9565b601f016020900490600052602060002090810190613cb89190613cbc565b5b50565b5b80821115613cd5576000816000905550600101613cbd565b5090565b6000604051905090565b600080fd5b600080fd5b60007fffffffff0000000000000000000000000000000000000000000000000000000082169050919050565b613d2281613ced565b8114613d2d57600080fd5b50565b600081359050613d3f81613d19565b92915050565b600060208284031215613d5b57613d5a613ce3565b5b6000613d6984828501613d30565b91505092915050565b60008115159050919050565b613d8781613d72565b82525050565b6000602082019050613da26000830184613d7e565b92915050565b600081519050919050565b600082825260208201905092915050565b60005b83811015613de2578082015181840152602081019050613dc7565b83811115613df1576000848401525b50505050565b6000601f19601f8301169050919050565b6000613e1382613da8565b613e1d8185613db3565b9350613e2d818560208601613dc4565b613e3681613df7565b840191505092915050565b60006020820190508181036000830152613e5b8184613e08565b905092915050565b6000819050919050565b613e7681613e63565b8114613e8157600080fd5b50565b600081359050613e9381613e6d565b92915050565b600060208284031215613eaf57613eae613ce3565b5b6000613ebd84828501613e84565b91505092915050565b600073ffffffffffffffffffffffffffffffffffffffff82169050919050565b6000613ef182613ec6565b9050919050565b613f0181613ee6565b82525050565b6000602082019050613f1c6000830184613ef8565b92915050565b613f2b81613ee6565b8114613f3657600080fd5b50565b600081359050613f4881613f22565b92915050565b60008060408385031215613f6557613f64613ce3565b5b6000613f7385828601613f39565b9250506020613f8485828601613e84565b9150509250929050565b613f9781613e63565b82525050565b6000602082019050613fb26000830184613f8e565b92915050565b600080600060608486031215613fd157613fd0613ce3565b5b6000613fdf86828701613f39565b9350506020613ff086828701613f39565b925050604061400186828701613e84565b9150509250925092565b6000819050919050565b61401e8161400b565b811461402957600080fd5b50565b60008135905061403b81614015565b92915050565b60006020828403121561405757614056613ce3565b5b60006140658482850161402c565b91505092915050565b6140778161400b565b82525050565b6000602082019050614092600083018461406e565b92915050565b600080604083850312156140af576140ae613ce3565b5b60006140bd8582860161402c565b92505060206140ce85828601613f39565b9150509250929050565b6000602082840312156140ee576140ed613ce3565b5b60006140fc84828501613f39565b91505092915050565b600080fd5b600080fd5b7f4e487b7100000000000000000000000000000000000000000000000000000000600052604160045260246000fd5b61414782613df7565b810181811067ffffffffffffffff821117156141665761416561410f565b5b80604052505050565b6000614179613cd9565b9050614185828261413e565b919050565b600067ffffffffffffffff8211156141a5576141a461410f565b5b6141ae82613df7565b9050602081019050919050565b82818337600083830152505050565b60006141dd6141d88461418a565b61416f565b9050828152602081018484840111156141f9576141f861410a565b5b6142048482856141bb565b509392505050565b600082601f83011261422157614220614105565b5b81356142318482602086016141ca565b91505092915050565b6000602082840312156142505761424f613ce3565b5b600082013567ffffffffffffffff81111561426e5761426d613ce8565b5b61427a8482850161420c565b91505092915050565b6000806040838503121561429a57614299613ce3565b5b600083013567ffffffffffffffff8111156142b8576142b7613ce8565b5b6142c48582860161420c565b92505060206142d585828601613f39565b9150509250929050565b6142e881613d72565b81146142f357600080fd5b50565b600081359050614305816142df565b92915050565b6000806040838503121561432257614321613ce3565b5b600061433085828601613f39565b9250506020614341858286016142f6565b9150509250929050565b600067ffffffffffffffff8211156143665761436561410f565b5b61436f82613df7565b9050602081019050919050565b600061438f61438a8461434b565b61416f565b9050828152602081018484840111156143ab576143aa61410a565b5b6143b68482856141bb565b509392505050565b600082601f8301126143d3576143d2614105565b5b81356143e384826020860161437c565b91505092915050565b6000806000806080858703121561440657614405613ce3565b5b600061441487828801613f39565b945050602061442587828801613f39565b935050604061443687828801613e84565b925050606085013567ffffffffffffffff81111561445757614456613ce8565b5b614463878288016143be565b91505092959194509250565b6000806040838503121561448657614485613ce3565b5b600061449485828601613f39565b92505060206144a585828601613f39565b9150509250929050565b6000806000606084860312156144c8576144c7613ce3565b5b60006144d686828701613f39565b935050602084013567ffffffffffffffff8111156144f7576144f6613ce8565b5b6145038682870161420c565b925050604084013567ffffffffffffffff81111561452457614523613ce8565b5b6145308682870161420c565b9150509250925092565b7f4e487b7100000000000000000000000000000000000000000000000000000000600052602260045260246000fd5b6000600282049050600182168061458157607f821691505b602082108114156145955761459461453a565b5b50919050565b7f4552433732313a20617070726f76656420717565727920666f72206e6f6e657860008201527f697374656e7420746f6b656e0000000000000000000000000000000000000000602082015250565b60006145f7602c83613db3565b91506146028261459b565b604082019050919050565b60006020820190508181036000830152614626816145ea565b9050919050565b7f4552433732313a20617070726f76616c20746f2063757272656e74206f776e6560008201527f7200000000000000000000000000000000000000000000000000000000000000602082015250565b6000614689602183613db3565b91506146948261462d565b604082019050919050565b600060208201905081810360008301526146b88161467c565b9050919050565b7f4552433732313a20617070726f76652063616c6c6572206973206e6f74206f7760008201527f6e6572206e6f7220617070726f76656420666f7220616c6c0000000000000000602082015250565b600061471b603883613db3565b9150614726826146bf565b604082019050919050565b6000602082019050818103600083015261474a8161470e565b9050919050565b7f4552433732313a207472616e736665722063616c6c6572206973206e6f74206f60008201527f776e6572206e6f7220617070726f766564000000000000000000000000000000602082015250565b60006147ad603183613db3565b91506147b882614751565b604082019050919050565b600060208201905081810360008301526147dc816147a0565b9050919050565b7f455243373231456e756d657261626c653a206f776e657220696e646578206f7560008201527f74206f6620626f756e6473000000000000000000000000000000000000000000602082015250565b600061483f602b83613db3565b915061484a826147e3565b604082019050919050565b6000602082019050818103600083015261486e81614832565b9050919050565b7f416363657373436f6e74726f6c3a2063616e206f6e6c792072656e6f756e636560008201527f20726f6c657320666f722073656c660000000000000000000000000000000000602082015250565b60006148d1602f83613db3565b91506148dc82614875565b604082019050919050565b60006020820190508181036000830152614900816148c4565b9050919050565b7f4f776e61626c653a2063616c6c6572206973206e6f7420746865206f776e6572600082015250565b600061493d602083613db3565b915061494882614907565b602082019050919050565b6000602082019050818103600083015261496c81614930565b9050919050565b7f4552433732314275726e61626c653a2063616c6c6572206973206e6f74206f7760008201527f6e6572206e6f7220617070726f76656400000000000000000000000000000000602082015250565b60006149cf603083613db3565b91506149da82614973565b604082019050919050565b600060208201905081810360008301526149fe816149c2565b9050919050565b7f455243373231456e756d657261626c653a20676c6f62616c20696e646578206f60008201527f7574206f6620626f756e64730000000000000000000000000000000000000000602082015250565b6000614a61602c83613db3565b9150614a6c82614a05565b604082019050919050565b60006020820190508181036000830152614a9081614a54565b9050919050565b7f4e487b7100000000000000000000000000000000000000000000000000000000600052603260045260246000fd5b7f4552433732313a206f776e657220717565727920666f72206e6f6e657869737460008201527f656e7420746f6b656e0000000000000000000000000000000000000000000000602082015250565b6000614b22602983613db3565b9150614b2d82614ac6565b604082019050919050565b60006020820190508181036000830152614b5181614b15565b9050919050565b7f436f756c646e27742066696e642074686973206164647265737320696e20746860008201527f6520726f6c65732e200000000000000000000000000000000000000000000000602082015250565b6000614bb4602983613db3565b9150614bbf82614b58565b604082019050919050565b60006020820190508181036000830152614be381614ba7565b9050919050565b7f4552433732313a2062616c616e636520717565727920666f7220746865207a6560008201527f726f206164647265737300000000000000000000000000000000000000000000602082015250565b6000614c46602a83613db3565b9150614c5182614bea565b604082019050919050565b60006020820190508181036000830152614c7581614c39565b9050919050565b600081905092915050565b6000614c9282613da8565b614c9c8185614c7c565b9350614cac818560208601613dc4565b80840191505092915050565b6000614cc48284614c87565b915081905092915050565b7f4552433732313a20617070726f766520746f2063616c6c657200000000000000600082015250565b6000614d05601983613db3565b9150614d1082614ccf565b602082019050919050565b60006020820190508181036000830152614d3481614cf8565b9050919050565b7f4d6f646966696564416363657373436f6e74726f6c3a2063616e6e6f7420726560008201527f766f6b652064656661756c742061646d696e20726f6c65000000000000000000602082015250565b6000614d97603783613db3565b9150614da282614d3b565b604082019050919050565b60006020820190508181036000830152614dc681614d8a565b9050919050565b7f546f74616c20737570706c792069732065780000000000000000000000000000600082015250565b6000614e03601283613db3565b9150614e0e82614dcd565b602082019050919050565b60006020820190508181036000830152614e3281614df6565b9050919050565b7f4e487b7100000000000000000000000000000000000000000000000000000000600052601160045260246000fd5b6000614e7382613e63565b9150614e7e83613e63565b9250827fffffffffffffffffffffffffffffffffffffffffffffffffffffffffffffffff03821115614eb357614eb2614e39565b5b828201905092915050565b7f4f776e61626c653a206e6577206f776e657220697320746865207a65726f206160008201527f6464726573730000000000000000000000000000000000000000000000000000602082015250565b6000614f1a602683613db3565b9150614f2582614ebe565b604082019050919050565b60006020820190508181036000830152614f4981614f0d565b9050919050565b7f4552433732313a206f70657261746f7220717565727920666f72206e6f6e657860008201527f697374656e7420746f6b656e0000000000000000000000000000000000000000602082015250565b6000614fac602c83613db3565b9150614fb782614f50565b604082019050919050565b60006020820190508181036000830152614fdb81614f9f565b9050919050565b7f4552433732313a207472616e73666572206f6620746f6b656e2074686174206960008201527f73206e6f74206f776e0000000000000000000000000000000000000000000000602082015250565b600061503e602983613db3565b915061504982614fe2565b604082019050919050565b6000602082019050818103600083015261506d81615031565b9050919050565b7f4552433732313a207472616e7366657220746f20746865207a65726f2061646460008201527f7265737300000000000000000000000000000000000000000000000000000000602082015250565b60006150d0602483613db3565b91506150db82615074565b604082019050919050565b600060208201905081810360008301526150ff816150c3565b9050919050565b600061511182613e63565b915061511c83613e63565b92508282101561512f5761512e614e39565b5b828203905092915050565b7f416363657373436f6e74726f6c3a206163636f756e7420000000000000000000600082015250565b6000615170601783614c7c565b915061517b8261513a565b601782019050919050565b7f206973206d697373696e6720726f6c6520000000000000000000000000000000600082015250565b60006151bc601183614c7c565b91506151c782615186565b601182019050919050565b60006151dd82615163565b91506151e98285614c87565b91506151f4826151af565b91506152008284614c87565b91508190509392505050565b7f5061757361626c653a206e6f7420706175736564000000000000000000000000600082015250565b6000615242601483613db3565b915061524d8261520c565b602082019050919050565b6000602082019050818103600083015261527181615235565b9050919050565b7f5061757361626c653a2070617573656400000000000000000000000000000000600082015250565b60006152ae601083613db3565b91506152b982615278565b602082019050919050565b600060208201905081810360008301526152dd816152a1565b9050919050565b7f4552433732313a207472616e7366657220746f206e6f6e20455243373231526560008201527f63656976657220696d706c656d656e7465720000000000000000000000000000602082015250565b6000615340603283613db3565b915061534b826152e4565b604082019050919050565b6000602082019050818103600083015261536f81615333565b9050919050565b7f45524337323155524953746f726167653a2055524920717565727920666f722060008201527f6e6f6e6578697374656e7420746f6b656e000000000000000000000000000000602082015250565b60006153d2603183613db3565b91506153dd82615376565b604082019050919050565b60006020820190508181036000830152615401816153c5565b9050919050565b60006154148285614c87565b91506154208284614c87565b91508190509392505050565b7f45524337323155524953746f726167653a2055524920736574206f66206e6f6e60008201527f6578697374656e7420746f6b656e000000000000000000000000000000000000602082015250565b6000615488602e83613db3565b91506154938261542c565b604082019050919050565b600060208201905081810360008301526154b78161547b565b9050919050565b60006154c982613e63565b91506154d483613e63565b9250817fffffffffffffffffffffffffffffffffffffffffffffffffffffffffffffffff048311821515161561550d5761550c614e39565b5b828202905092915050565b600061552382613e63565b9150600082141561553757615536614e39565b5b600182039050919050565b7f537472696e67733a20686578206c656e67746820696e73756666696369656e74600082015250565b6000615578602083613db3565b915061558382615542565b602082019050919050565b600060208201905081810360008301526155a78161556b565b9050919050565b600081519050919050565b600082825260208201905092915050565b60006155d5826155ae565b6155df81856155b9565b93506155ef818560208601613dc4565b6155f881613df7565b840191505092915050565b60006080820190506156186000830187613ef8565b6156256020830186613ef8565b6156326040830185613f8e565b818103606083015261564481846155ca565b905095945050505050565b60008151905061565e81613d19565b92915050565b60006020828403121561567a57615679613ce3565b5b60006156888482850161564f565b91505092915050565b7f4552433732314d657461646174613a2055524920717565727920666f72206e6f60008201527f6e6578697374656e7420746f6b656e0000000000000000000000000000000000602082015250565b60006156ed602f83613db3565b91506156f882615691565b604082019050919050565b6000602082019050818103600083015261571c816156e0565b9050919050565b600061572e82613e63565b91507fffffffffffffffffffffffffffffffffffffffffffffffffffffffffffffffff82141561576157615760614e39565b5b600182019050919050565b7f4e487b7100000000000000000000000000000000000000000000000000000000600052601260045260246000fd5b60006157a682613e63565b91506157b183613e63565b9250826157c1576157c061576c565b5b828204905092915050565b60006157d782613e63565b91506157e283613e63565b9250826157f2576157f161576c565b5b828206905092915050565b7f4552433732313a206d696e7420746f20746865207a65726f2061646472657373600082015250565b6000615833602083613db3565b915061583e826157fd565b602082019050919050565b6000602082019050818103600083015261586281615826565b9050919050565b7f4552433732313a20746f6b656e20616c7265616479206d696e74656400000000600082015250565b600061589f601c83613db3565b91506158aa82615869565b602082019050919050565b600060208201905081810360008301526158ce81615892565b9050919050565b7f4e487b7100000000000000000000000000000000000000000000000000000000600052603160045260246000fdfea2646970667358221220950fe124a2c65535bd5ed3bfacfec22055325614c1877f3aec21a298670a36ff64736f6c634300080a0033",
  "immutableReferences": {},
  "source": "pragma solidity ^0.8.2;\n\nimport \"@openzeppelin/contracts/token/ERC721/ERC721.sol\";\nimport \"@openzeppelin/contracts/token/ERC721/extensions/ERC721Enumerable.sol\";\nimport \"@openzeppelin/contracts/token/ERC721/extensions/ERC721URIStorage.sol\";\nimport \"@openzeppelin/contracts/security/Pausable.sol\";\nimport \"@openzeppelin/contracts/token/ERC721/extensions/ERC721Burnable.sol\";\nimport \"@openzeppelin/contracts/access/Ownable.sol\";\nimport \"@openzeppelin/contracts/access/AccessControl.sol\";\n\ncontract KeyToMetaverseBSC is\n    ERC721,\n    ERC721Enumerable,\n    ERC721URIStorage,\n    Pausable,\n    ERC721Burnable,\n    Ownable,\n    AccessControl\n{\n    bytes32 public constant MINTER_ROLE = keccak256(\"MINTER_ROLE\");\n    bytes32 public constant BURNER_ROLE = keccak256(\"BURNER_ROLE\");\n\n    uint256 private tokenIdTracker = 1;\n\n    // NFT list\n    string[] public nftList;\n\n    // NFT status\n    mapping(string => bool) nftExists;\n\n    // NFT word.\n    string[] public nftWords;\n\n    // Max token can be minted.\n    uint256 public constant MAX_SUPPLY = 4000;\n\n    string public baseTokenURI;\n\n    // Event\n    event welcomeToK2M(uint256 indexed id);\n\n    constructor(\n        string memory name,\n        string memory symbol,\n        address ownerAddress\n    ) ERC721(name, symbol) {\n        _setupRole(MINTER_ROLE, msg.sender);\n        _setupRole(BURNER_ROLE, msg.sender);\n        transferOwnership(ownerAddress);\n        _setupRole(DEFAULT_ADMIN_ROLE, ownerAddress);\n        _setupRole(MINTER_ROLE, ownerAddress);\n        _setupRole(BURNER_ROLE, ownerAddress);\n    }\n\n    function pause() public onlyOwner {\n        _pause();\n    }\n\n    function unpause() public onlyOwner {\n        _unpause();\n    }\n\n    function _baseURI() internal view virtual override returns (string memory) {\n        return baseTokenURI;\n    }\n\n    function setBaseURI(string memory baseURI) public onlyOwner {\n        baseTokenURI = baseURI;\n    }\n\n    function grandMinterRole(address minterAddress) public onlyOwner {\n        _setupRole(MINTER_ROLE, minterAddress);\n    }\n\n    function grandBurnerRole(address burnerAddress) public onlyOwner {\n        _setupRole(BURNER_ROLE, burnerAddress);\n    }\n\n    function revokeMinterAccess(address minterAddress) public onlyOwner {\n        require(\n            hasRole(MINTER_ROLE, minterAddress),\n            \"Couldn't find this address in the roles. \"\n        );\n        revokeRole(MINTER_ROLE, minterAddress);\n    }\n\n    function revokeBurnerAccess(address burnerAddress) public onlyOwner {\n        require(\n            hasRole(BURNER_ROLE, burnerAddress),\n            \"Couldn't find this address in the roles. \"\n        );\n        revokeRole(BURNER_ROLE, burnerAddress);\n    }\n\n    function grandRole(string memory role, address account) public onlyOwner {\n        bytes32 roleName = keccak256(abi.encodePacked(role));\n        _setupRole(roleName, account);\n    }\n\n    function revokeAccess(string memory role, address account)\n        public\n        onlyOwner\n    {\n        bytes32 roleName = keccak256(abi.encodePacked(role));\n        require(\n            roleName != DEFAULT_ADMIN_ROLE,\n            \"ModifiedAccessControl: cannot revoke default admin role\"\n        );\n        require(\n            hasRole(roleName, account),\n            \"Couldn't find this address in the roles. \"\n        );\n        revokeRole(roleName, account);\n    }\n\n    function safeMint(\n        address _to,\n        string memory _tokenURI,\n        string memory _nftWord\n    ) external onlyRole(MINTER_ROLE) {\n        require(totalSupply() < MAX_SUPPLY, \"Total supply is ex\");\n        require(!nftExists[_tokenURI]);\n        nftList.push(_tokenURI);\n        // uint256 tokenId = tokenIdTracker.current();\n        uint256 tokenId = tokenIdTracker;\n        _safeMint(_to, tokenId);\n        // tokenIdTracker.increment();\n        tokenIdTracker = tokenIdTracker + 1;\n        nftExists[_tokenURI] = true;\n\n        // setting the token tokenURI\n        _setTokenURI(tokenId, _tokenURI);\n        nftWords.push(_nftWord);\n\n        emit welcomeToK2M(tokenId);\n    }\n\n    function _beforeTokenTransfer(\n        address from,\n        address to,\n        uint256 tokenId\n    ) internal override(ERC721, ERC721Enumerable) whenNotPaused {\n        super._beforeTokenTransfer(from, to, tokenId);\n    }\n\n    function burnToken(uint256 tokenId) public onlyOwner {\n        _burn(tokenId);\n    }\n\n    // The following functions are overrides required by Solidity.\n\n    function _burn(uint256 tokenId)\n        internal\n        override(ERC721, ERC721URIStorage)\n        onlyOwner\n    {\n        super._burn(tokenId);\n    }\n\n    function tokenURI(uint256 tokenId)\n        public\n        view\n        override(ERC721, ERC721URIStorage)\n        returns (string memory)\n    {\n        return super.tokenURI(tokenId);\n    }\n\n    function supportsInterface(bytes4 interfaceId)\n        public\n        view\n        override(ERC721, ERC721Enumerable, AccessControl)\n        returns (bool)\n    {\n        return super.supportsInterface(interfaceId);\n    }\n}\n",
  "sourcePath": "/Users/aravinth/Repo/codegama/blockchain/binace-nftclient-frontend-base/src/contracts/KeyToMetaverseBSC.sol",
  "compiler": {
    "name": "solc",
    "version": "0.8.10+commit.fc410830.Emscripten.clang"
  },
  "schemaVersion": "3.3.4",
  "updatedAt": "2021-11-10T12:18:55.351Z",
  "networkType": "ethereum",
  "devdoc": {
    "kind": "dev",
    "methods": {
      "approve(address,uint256)": {
        "details": "See {IERC721-approve}."
      },
      "balanceOf(address)": {
        "details": "See {IERC721-balanceOf}."
      },
      "burn(uint256)": {
        "details": "Burns `tokenId`. See {ERC721-_burn}. Requirements: - The caller must own `tokenId` or be an approved operator."
      },
      "getApproved(uint256)": {
        "details": "See {IERC721-getApproved}."
      },
      "getRoleAdmin(bytes32)": {
        "details": "Returns the admin role that controls `role`. See {grantRole} and {revokeRole}. To change a role's admin, use {_setRoleAdmin}."
      },
      "grantRole(bytes32,address)": {
        "details": "Grants `role` to `account`. If `account` had not been already granted `role`, emits a {RoleGranted} event. Requirements: - the caller must have ``role``'s admin role."
      },
      "hasRole(bytes32,address)": {
        "details": "Returns `true` if `account` has been granted `role`."
      },
      "isApprovedForAll(address,address)": {
        "details": "See {IERC721-isApprovedForAll}."
      },
      "name()": {
        "details": "See {IERC721Metadata-name}."
      },
      "owner()": {
        "details": "Returns the address of the current owner."
      },
      "ownerOf(uint256)": {
        "details": "See {IERC721-ownerOf}."
      },
      "paused()": {
        "details": "Returns true if the contract is paused, and false otherwise."
      },
      "renounceOwnership()": {
        "details": "Leaves the contract without owner. It will not be possible to call `onlyOwner` functions anymore. Can only be called by the current owner. NOTE: Renouncing ownership will leave the contract without an owner, thereby removing any functionality that is only available to the owner."
      },
      "renounceRole(bytes32,address)": {
        "details": "Revokes `role` from the calling account. Roles are often managed via {grantRole} and {revokeRole}: this function's purpose is to provide a mechanism for accounts to lose their privileges if they are compromised (such as when a trusted device is misplaced). If the calling account had been granted `role`, emits a {RoleRevoked} event. Requirements: - the caller must be `account`."
      },
      "revokeRole(bytes32,address)": {
        "details": "Revokes `role` from `account`. If `account` had been granted `role`, emits a {RoleRevoked} event. Requirements: - the caller must have ``role``'s admin role."
      },
      "safeTransferFrom(address,address,uint256)": {
        "details": "See {IERC721-safeTransferFrom}."
      },
      "safeTransferFrom(address,address,uint256,bytes)": {
        "details": "See {IERC721-safeTransferFrom}."
      },
      "setApprovalForAll(address,bool)": {
        "details": "See {IERC721-setApprovalForAll}."
      },
      "symbol()": {
        "details": "See {IERC721Metadata-symbol}."
      },
      "tokenByIndex(uint256)": {
        "details": "See {IERC721Enumerable-tokenByIndex}."
      },
      "tokenOfOwnerByIndex(address,uint256)": {
        "details": "See {IERC721Enumerable-tokenOfOwnerByIndex}."
      },
      "totalSupply()": {
        "details": "See {IERC721Enumerable-totalSupply}."
      },
      "transferFrom(address,address,uint256)": {
        "details": "See {IERC721-transferFrom}."
      },
      "transferOwnership(address)": {
        "details": "Transfers ownership of the contract to a new account (`newOwner`). Can only be called by the current owner."
      }
    },
    "version": 1
  },
  "userdoc": {
    "kind": "user",
    "methods": {},
    "version": 1
  }
}